:020000040800F2
:1000000020070020450100084D0100084F010008AD
:1000100051010008530100085501000800000000CC
:100020000000000000000000000000005701000870
:1000300059010008000000005B0100085D01000894
:100040005F0100085F0100085F0100085F01000810
:100050005F0100085F0100085F0100085F01000800
:100060005F0100085F010008A70300085F010008A6
:100070005F0100085F0100085F0100085F010008E0
:100080005F0100085F0100085F0100085F010008D0
:100090005F0100085F0100085F0100086B5D000858
:1000A0005F0100085F0100085F0100085F010008B0
:1000B000794700085F0100085F0100085F01000840
:1000C0005F0100085F0100085F0100085F01000890
:1000D0005F01000861520008D35900080958000860
:1000E0005F0100085F0100085F0100085F01000870
:1000F0005F0100085F0100085F0100085F01000860
:100100005F0100085F0100085F0100085F0100084F
:100110005F0100085F0100085F010008AD470008AB
:100120005F0100085F0100085F0100085F0100082F
:10013000DFF80CD008F04AFF0048004769010008CA
:10014000200700200648804706480047FEE7FEE7F4
:10015000FEE7FEE7FEE7FEE7FEE7FEE7FEE7FEE777
:10016000978500083101000803F0DAFF04F03EF83B
:1001700001E005F078FEFCE710B50121042006F04F
:1001800003FA0121082006F0FFF90121042006F0FE
:1001900008FA0121082006F004FA10BD08B548202D
:1001A0008DF80300C020ADF8000003208DF8020098
:1001B00069464C4805F02CFF48208DF803000320C9
:1001C000ADF800008DF802006946474805F020FFB1
:1001D00008BD00B587B004A807F071F90020ADF89C
:1001E00010000F20ADF818000020ADF8120004A98F
:1001F0003E4807F0B8F80420ADF810000F20ADF825
:1002000018000020ADF8120004A9384807F0ABF838
:1002100000231A460321354807F021FA0020ADF8E3
:100220000A004FF6FF70ADF808000020ADF804009A
:100230008DF80C0001A92D4806F002FE01212B4883
:1002400007F05AF904A807F03AF90020ADF81000B9
:100250000F20ADF818000020ADF8120004A92448C2
:1002600007F081F80420ADF810000F20ADF8180059
:100270000020ADF8120004A91D4807F074F800230F
:100280001A4603211A4807F0EAF90020ADF80A00DF
:100290004FF6FF70ADF808000020ADF804008DF8AF
:1002A0000C0001A9124806F0CBFD0121104807F00F
:1002B00023F907B000BD10B5FFF75EFFFFF76EFF33
:1002C000FFF787FF10BD01460020888CC21322B1C2
:1002D000C0F30E02A2F5FE40FF3870470021818472
:1002E00070470000000C0140000801400008004079
:1002F000000C004010B50121042006F045F9012151
:10030000084606F041F910BD08B50820ADF8000018
:1003100010208DF8030003208DF8020069462A485A
:1003200005F076FE1020ADF8000048208DF803009F
:100330006946254805F06CFE08BD1CB5102006F086
:10034000A2FC0421002005F079FF1020009000207D
:100350008DF804000C208DF8050001208DF80600B2
:10036000684606F019FC1CBD08B54FF4A06006F005
:100370006FF90A208DF8000001208DF8010000209F
:100380008DF8020001208DF80300684606F065F93B
:1003900008BD10B5FFF7AEFFFFF7B6FFFFF7CDFFC3
:1003A000FFF7E2FF10BD10B5142003F069FE102125
:1003B000054805F0C0FE18B90821034805F0D7FE2E
:1003C000102006F060FC10BD0008014010B50121AE
:1003D000042006F0D9F810BD08B52020ADF80000C3
:1003E00010208DF8030003208DF8020069460748AD
:1003F00005F00EFE2021054805F0B7FE08BD10B53A
:10040000FFF7E4FFFFF7E8FF10BD00000008014020
:1004100010B5FE48FFF757FFFD490860FD48FFF79C
:1004200052FF4042FC49086010BD10B5FB4AFC4930
:10043000FC4802F01CFEFC490870FC4AFC49FD48DF
:1004400000F037FC10BD10B50446012C0DD1EF486B
:10045000FFF739FFF84908600846006800EB8000A4
:1004600040000860E948FFF739FF022C0ED1E94847
:10047000FFF729FF4042F14908600846006800EB99
:10048000800040000860E348FFF728FF10BD2DE919
:10049000F047002500240026E9480068E949086083
:1004A000DA48FFF710FFE8490860E8480068096883
:1004B0000844E6490860E448006864214843E2498A
:1004C0000860D248FFF70AFFDF480168E048E14AC8
:1004D000126840F82210DF480068401CDD490860BF
:1004E000084600680A284CDB002008600A251CE04A
:1004F000002416E0D64850F824100246601C52F83A
:10050000200081420BDD104650F824600146601C3B
:1005100051F8200041F82400601C41F82060601C64
:10052000C4B2681EA042E5DCC5B2012DE0DA0026A7
:10053000022505E0C64850F825000644681CC5B2EF
:10054000082DF7DB062096FBF0F0BF490860BD4898
:10055000006808F041FB8246BF4908F045F9804633
:10056000B948006808F038FB8246BC4908F03CF9FD
:100570008146414608F0E0F8074608F059FBB049CB
:100580000860BDE8F0872DE9F0470025002400262B
:10059000B3480068B34908609E48FFF794FE4042A4
:1005A000B1490860B148006809680844AF4908606B
:1005B000AD48006864214843AB4908609548FFF79F
:1005C0008DFEA9480168AA48AA4A126840F822107C
:1005D000A8480068401CA7490860084600680A2827
:1005E0004CDB002008600A251CE0002416E0A0482F
:1005F00050F824100246601C52F8200081420BDDA6
:10060000104650F824600146601C51F8200041F863
:100610002400601C41F82060601CC4B2681EA04227
:10062000E5DCC5B2012DE0DA0026022505E09048A0
:1006300050F825000644681CC5B2082DF7DB0620DB
:1006400096FBF0F0884908608648006808F0C4FA14
:100650008246814908F0C8F880468348006808F05F
:10066000BBFA82467D4908F0BFF88146414608F052
:1006700063F8074608F0DCFA79490860BDE8F087BE
:10068000002800DA4042002800DB00BF704770B548
:1006900004460E4600252046FFF7F2FF0546012ED0
:1006A00013D1002C07DB0021734807F0BDF9A9B274
:1006B000714807F0BBF9002C07DAA9B26E4807F0C1
:1006C000B3F900216C4807F0B1F9022E13D1002CC8
:1006D00007DBA9B2684807F0ABF90021664807F0CC
:1006E000A9F9002C07DA0021634807F0A1F9A9B2A3
:1006F000614807F09FF970BD2DE9F04705460C46AB
:100700005E480168284608F06CF880465C4801683D
:10071000204608F069F8814641465A48006808F0CA
:1007200063F88246494608F007F8074608F080FA61
:1007300006463046BDE8F0872DE9FC5F0446894651
:1007400004EB090050490968401A504908605048B4
:10075000006808F04FFA07464E4A4F4B08F05BF925
:10076000054608F092FA4A4908604848006808F0CF
:1007700041FA0746474A494B08F04DF905460E46EF
:100780004348006808F036FA82462A46334608F0A5
:100790009BF8CDE9000108F078FA3D49086040482F
:1007A0000068096808443E49086008460068B0F5DA
:1007B000FA5F02DD4FF4FA5008603948006810F51E
:1007C000FA5F02DA3748364908603548006808F0B1
:1007D00003FA804634480168404608F005F80646AA
:1007E0002B48006808F0F8F9804630480168404618
:1007F00007F0FAFF0746314607F09EFF054608F06E
:1008000017FA2B4908602B49064855E0000C0040B8
:100810000400002000080040080000201400002010
:10082000100000200C00002000000020220000200A
:10083000200000201E000020300000203400002096
:1008400044000020480000204C0000203C00002014
:100850004C01002050000020CDCC4C3ECDCC4C3F74
:1008600054000020580000205C00002040000020C0
:10087000740100206000002000040040800000207F
:10088000880000208400002078000020A0000020C4
:10089000A40000209A9999999999E93F9999C93F9B
:1008A000A8000020C0E0FFFF900000208C00002086
:1008B0009C0000200000A042006808F06FFA05D9F3
:1008C00054495548006808F05FFA02D8002053499F
:1008D000086053480068BDE8FC9F2DE9F0410446DC
:1008E0000D4600260021204608F04EFA08D1294680
:1008F0004C48006807F078FF074608F099F906466B
:100900000021204608F040FA08D0474801682046F8
:1009100007F06AFF074608F08BF906463046BDE847
:10092000F08170B54148B0F9000008F055F904466F
:10093000214639480068FFF7DFFE3D4908603D4821
:1009400001683D480068FFF7F7FE3C4908603C48F5
:10095000B0F9000008F040F904463A48006808F091
:100960003BF905462146FFF7B8FF37490860304894
:100970000068324909680844334909680844334922
:1009800008602B4800682D49096808442E49096809
:10099000401A2F4908602D480068B0F5E15F03DB7D
:1009A0004FF4E150294908602848006810F5E15FDC
:1009B00002DC28482549086025480068B0F5E15F59
:1009C00003DB4FF4E150224908602148006810F52C
:1009D000E15F02DC1F481E4908601F490E4800689D
:1009E00008F0DCF905D90B490B48006808F0CCF990
:1009F00004D80020154908601549086001211348F2
:100A00000068FFF744FE022111480068FFF73FFE2F
:100A100070BD00000000A0C20C000020A800002053
:100A20009C0000209800002094000020200000205E
:100A30006800002034000020300000206400002006
:100A4000220000207C0000206C00002070000020AC
:100A500074000020E0E3FFFF0000A04270B50546EF
:100A60000C4600F0CFF9D02000F076FA00F007FA3B
:100A700018B100F0E5F9012070BD284600F06CFACD
:100A800000F0FDF9204600F067FA00F0F8F918B11F
:100A900000F0D6F90120EFE700F0D2F90020EBE7F3
:100AA00070B504460025BC2C01DB012510E0622C4A
:100AB00001DB02250CE02A2C01DB032508E0142CC5
:100AC00001DB042504E00A2C01DB052500E00625F6
:100AD00029461A20FFF7C2FF70BD70B50446B4F571
:100AE0007A7F01DD4FF47A74042C00DA04244FF489
:100AF0007A7090FBF4F0401EC5B229461920FFF72A
:100B0000ADFF0546264604EBD671C1F34F00FFF753
:100B1000C7FF70BD70B5044600F074F9D02000F036
:100B20001BFA00F0ACF9204600F016FA00F0A7F925
:100B300000F068F9D12000F00FFA00F0A0F90020D1
:100B400000F033FA054600F07BF9284670BD10B579
:100B50000446E006010E1C20FFF780FF10BD10B513
:100B60000446E006010E1B20FFF778FF10BD10B50C
:100B700000F02FF980216B20FFF770FF642003F055
:100B80007FFA00216B20FFF769FF0320FFF7E7FFE3
:100B90000020FFF7DCFF3220FFF79FFF0021382005
:100BA000FFF75CFF00216A20FFF758FF0021232098
:100BB000FFF754FF80213720FFF750FF7520FFF724
:100BC000A9FF0446682C0BD101216B20FFF746FFDB
:100BD00000216C20FFF742FFC820FFF77EFF01E0F5
:100BE000012010BD0020FCE72DE9F04106460F462C
:100BF00014461D4600F006F9002141EA4601C8B23C
:100C000000F0AAF900F03BF920B100F019F9012039
:100C1000BDE8F081384600F09FF900F030F900F0AF
:100C2000F1F8012101EB4601C8B200F095F900F09E
:100C300026F90DE0012C04D1002000F0B6F928704F
:100C400003E0012000F0B1F92870601EC4B26D1CF1
:100C5000002CEFD100F0F4F80020D9E72DE9F84F8F
:100C60006B46022241216820FFF7BEFF9DF801007C
:100C70009DF8001040EA01200FFA80FA504607F074
:100C8000B9FF804600224B4B07F037FF06464A4A21
:100C90004A4B07F019FE044608F05AF883464849C3
:100CA000584607F0A1FD044607F0C2FF00B2BDE8B8
:100CB000F88F2DE9FC4104460D4616466B46062288
:100CC00043216820FFF790FF0746BFB99DF8010058
:100CD0009DF8001040EA012000B220809DF803003A
:100CE0009DF8021040EA012000B228809DF805001E
:100CF0009DF8041040EA012000B230803846BDE87B
:100D0000FC812DE9FC4104460D4616466B46062241
:100D10003B216820FFF768FF0746BFB99DF8010037
:100D20009DF8001040EA012000B220809DF80300E9
:100D30009DF8021040EA012000B228809DF80500CD
:100D40009DF8041040EA012000B230803846BDE82A
:100D5000FC812DE9F04105460E461746984600F005
:100D600051F8002141EA4501C8B200F0F5F800F061
:100D700086F820B100F064F80120BDE8F08130462B
:100D800000F0EAF800F07BF800240CE018F804000A
:100D900000F0E2F800F073F818B100F051F801200B
:100DA000EBE7601CC4B2BC42F0DB00F049F8002065
:100DB000E3E7000000407540A4703D0AD74342407D
:100DC0000000C842002001E0411CC8B20128FBDB42
:100DD000704708B50121102005F0D6FB4FF4407094
:100DE000ADF8000010208DF8030003208DF80200FC
:100DF0006946864805F00CF94FF44071834805F0C8
:100E0000B4F908BD00B58148406820F0F0007F4982
:100E100048600846406840F03000486001207C4946
:100E200008607C49C1F8A001FFF7CCFF0020784999
:100E30000860FFF7C7FF00207649C1F8A00100BD98
:100E400000B57248406820F0F000704948600846DC
:100E5000406840F03000486000206D49091F08607C
:100E60006C49C1F8A401FFF7ADFF01206849091FD3
:100E700008606849C1F8A401FFF7A4FF00BD00B5F0
:100E800000226248406820F0F0006049486008464F
:100E9000406840F08000486001205D490860FFF72D
:100EA00091FF01205B49C1F8A001FFF78BFF07E02C
:100EB000501CC2B2FA2A03DDFFF7C2FF012000BDB9
:100EC0005348803800680028F2D15149091F086052
:100ED00000BFF4E700B500204D49091F08604B48EA
:100EE000406820F0F000494948600846406840F0FA
:100EF0003000486000204749C1F8A401FFF762FFB5
:100F000001204349091F0860FFF75CFF00204149A9
:100F1000C1F8A00100BD00B500203D49091F0860CF
:100F20003A48406820F0F000384948600846406878
:100F300040F03000486001203649C1F8A401FFF7B5
:100F400041FF01203249091F0860FFF73BFF0020E5
:100F50003049C1F8A00100BD00B502462B484068E9
:100F600020F0F000294948600846406840F0300011
:100F7000486000202649091F0860002312E0D009BC
:100F8000234908605006020E01202249C1F8A00141
:100F9000FFF718FF00201E49091F0860FFF712FF26
:100FA000581CC3B2082BEADB00BD10B50346002273
:100FB0001648406820F0F000144948600846406830
:100FC00040F080004860002415E000201049091F0F
:100FD0000860FFF7F7FE01200E49C1F8A001500696
:100FE000020E0B488038006808B1501CC2B2FFF7EF
:100FF000E9FE601CC4B2082CE7DB13B9FFF78BFFD6
:1010000001E0FFF767FF104610BD0000001001402F
:10101000A40122420000224238B50446F74890F865
:101020002400C0B114B10220009001E00020009023
:10103000F24A1268D17BF14A526810786B4601225D
:10104000FFF787FE10B14FF0FF3038BD9DF800105C
:10105000EA48417423E0E948807A10B94FF0FF3044
:10106000F3E724B1E548407C08B10020EDE714B176
:101070000120009001E000200090E04A1268D17B3E
:10108000DE4A526810786B460122FFF762FE10B10B
:101090004FF0FF30D9E79DF80010D8484174002088
:1010A000D3E738B500241FE0D4480068C07AA042D6
:1010B00004D0D2480068407DA04200D112E0CF4960
:1010C000496808786B4601222146FFF78DFD10B173
:1010D0004FF0FF3038BD9DF800202146C8A008F031
:1010E00003F800BF601CC4B2C44840680079A04245
:1010F000DADC0020EEE770B504460D46BF48006814
:10110000C07AA04204D0BD480068407DA04202D110
:101110004FF0FF3070BDB94840680079A04202DC52
:101120004FF0FF30F6E7B549496808782B460122B1
:101130002146FFF759FDEDE738B50446AF4890F872
:101140002300A04201D1002038BD14B1302000900E
:1011500001E000200090A948807C20B19DF80000AB
:1011600040F002000090A54890F8220020B19DF8C0
:10117000000040F080000090A04A1268117D9F4A54
:10118000526810786B460122FFF7E3FD10B14FF073
:10119000FF30D9E7994880F823400020D4E738B5DC
:1011A000044604F0700010B10120009005E014B175
:1011B0000020009001E040200090904A1268917C4D
:1011C0008E4A526810786B460122FFF7C2FD20B1AB
:1011D00000218A488172481E38BD9DF8000020F029
:1011E0004001864801730020009004F0400020B9BF
:1011F0009DF8000040F00400009004F0200020B9A9
:101200009DF8000040F00200009004F0100020B9AA
:101210009DF8000040F00100009004F0080020B9A3
:101220009DF8000040F038000090744A1268D17CAC
:10123000724A526810786B460122FFF78AFD20B18E
:1012400000216E488172481EC6E724B1082C02D0E6
:101250000020FFF771FF6948847200210175322078
:1012600002F00EFF0020B7E738B504466348807CE3
:10127000A04201D1002038BD002C46D05F4A126840
:1012800011795E4A526810786B460122FFF7ACFC78
:1012900010B14FF0FF30EEE79DF8000020F0200085
:1012A0000090564A12681179544A526810786B4679
:1012B0000122FFF74EFD10B14FF0FF30DBE70320B6
:1012C00002F0DEFE022000904C4890F8220020B18F
:1012D0009DF8000040F080000090484890F82300FE
:1012E00020B19DF8000040F030000090434A1268A1
:1012F000117D424A526810786B460122FFF729FDA2
:10130000002851D04FF0FF30B5E73C4A1268117900
:101310003A4A526810786B460122FFF765FC10B11B
:101320004FF0FF30A7E73548807A00F0010028B180
:101330009DF8000040F02000009004E09DF80000BF
:1013400020F0200000902D4A126811792B4A526833
:1013500010786B460122FFF7FCFC10B14FF0FF3014
:1013600089E7032002F08CFE244890F8220010B197
:101370008020009001E000200090204890F8230099
:1013800020B19DF8000040F0300000901B4A126828
:10139000117D1A4A526810786B460122FFF7D9FC7A
:1013A00010B14FF0FF3066E714488474002062E704
:1013B00008B51248807A10B94FF0FF3008BD002000
:1013C00000900E4A1268D17B0C4A526810786B4626
:1013D0000122FFF7BEFC10B14FF0FF30EEE7074AE5
:1013E00012685179054A526810786B460122FFF75E
:1013F000B0FC68B14FF0FF30E0E70000AC00002027
:10140000252335783A20252335780D0A0000000081
:10141000F84A12681179F74A526810786B4601222F
:10142000FFF797FC10B14FF0FF30C7E7F14890F895
:101430002400002853D00C200090EE4A1268117945
:10144000EC4A526810786B460122FFF782FC10B11B
:101450004FF0FF30B2E7322002F012FEC0200090C1
:10146000E448807A00F0010020B19DF8000040F0CF
:1014700020000090DF4A12681179DE4A5268107825
:101480006B460122FFF765FC10B14FF0FF3095E786
:10149000D848407C10B10220009001E0002000906C
:1014A000D44A1268D17BD34A526810786B46012225
:1014B000FFF74FFC10B14FF0FF307FE700200090A6
:1014C000CC4A12685179CB4A526810786B46012297
:1014D000FFF73FFC002855D04FF0FF306EE70420A7
:1014E0000090C44A12681179C24A526810786B465B
:1014F0000122FFF72EFC10B14FF0FF305EE7BD4830
:10150000807C20B9BB48807A00F0010010B94020EF
:10151000009001E060200090B64A12681179B54A47
:10152000526810786B460122FFF713FC10B14FF0A0
:10153000FF3043E7322002F0A3FDAE48407C10B1FB
:101540000120009001E000200090AA4A1268D17B9F
:10155000A84A526810786B460122FFF7FAFB10B1D7
:101560004FF0FF302AE7A34A12685179A14A526826
:101570001078A04B10330122FFF7EBFB10B14FF0B6
:10158000FF301BE7002019E770B50446002624F061
:101590000104984890F8240008B1002070BD9548D7
:1015A000807A10B94FF0FF30F8E79248057C807AD6
:1015B0002040904908740846007CA04202D04FF0B9
:1015C000FF3600E0002614B98A48007D18B10120DA
:1015D000FFF722FD02E00020FFF71EFD3CB1FFF700
:1015E000E7FE20B1834805744FF0FF30D6E7304660
:1015F000D4E738B504467F48807A10B94FF0FF3001
:1016000038BDBC2C02DB0120009015E0622C02DB0F
:101610000220009010E02A2C02DB032000900BE057
:10162000142C02DB0420009006E00A2C02DB0520CB
:10163000009001E0062000906E48C07A9DF80010EE
:10164000884201D10020DBE76A4A12689178694A32
:10165000526810786B460122FFF77BFB10B14FF008
:10166000FF30CDE79DF800106248C1720020C7E747
:1016700038B50446282C02DD4FF0FF3038BDDCB908
:101680000020FFF759FD00208DF8000007208DF89D
:101690000100584A1268917C564A526810786B468D
:1016A0000222FFF756FB10B14FF0FF30E6E70021B2
:1016B000504801750020E1E70120FFF73DFD2020A3
:1016C0008DF80000012C06D100208DF801000520C6
:1016D000FFF78FFF17E0052C06DC01208DF80100D5
:1016E0000520FFF786FF0EE0142C06DC02208DF8A3
:1016F00001000A20FFF77DFF05E003208DF80100BF
:101700001420FFF776FF9DF80100072101EB801000
:10171000C0B28DF80100374A1268917C354A526890
:1017200010786B460222FFF714FB10B14FF0FF3028
:10173000A4E708212F48817200210173012101755E
:101740000020FFF721FF002098E738B5044629481C
:10175000807A10B94FF0FF3038BD264890F8240049
:1017600010B14FF0FF30F7E72248007D50B134B19F
:10177000282C04DCE0B2FFF77BFF0020ECE7002020
:10178000FFF776FF042C01DA042404E0B4F57A7F35
:1017900001DD4FF47A744FF47A7090FBF4F0401E40
:1017A000C0B20090134A12685178124A52681078F9
:1017B0006B460122FFF7CDFA10B14FF0FF30CBE7B7
:1017C0009DF80000401C4FF47A7191FBF0F081B25B
:1017D0000848C1810146C9894810FFF70AFF002067
:1017E000BAE738B504460348807A28B94FF0FF308D
:1017F00038BD0000AC000020022C06D0042C07D01D
:10180000082C08D0102C0CD108E0002000900BE030
:101810000820009008E01020009005E018200090BB
:1018200002E04FF0FF30E3E700BFF948407A9DF84F
:101830000010B0EBE10F01D10020D9E7F44A1268A3
:10184000D179F34A526810786B460122FFF781FA8A
:1018500010B14FF0FF30CBE79DF80000C110EC480D
:1018600041720020C4E738B50446E948807A10B9CF
:101870004FF0FF3038BDFA2C09D0B4F5FA7F09D00B
:10188000B4F57A7F09D0B4F5FA6F0CD108E00020E6
:1018900000900BE00820009008E01020009005E088
:1018A0001820009002E04FF0FF30E3E700BFD84877
:1018B000007A9DF80010B0EBE10F01D10020D9E7CC
:1018C000D34A12689179D24A526810786B46012245
:1018D000FFF73FFA10B14FF0FF30CBE79DF8000063
:1018E000C010CB4908720020C4E71CB580208DF8D9
:1018F0000000C74A1268917CC54A526810786B464E
:101900000122FFF726FA10B14FF0FF301CBD642012
:1019100002F0B6FB00208DF80000BD4A1268917CF1
:10192000BB4A526810786B460122FFF712FA10B1D9
:101930004FF0FF30EAE7B64A1268917DB44A526828
:1019400010786B460622FFF74FF910B14FF0FF30C9
:10195000DCE79DF80500C007400F9DF8031001F07B
:10196000010140EA41009DF8011001F0010140EA47
:10197000010494B1012C03D10121A548C17431E0C7
:10198000022C03D10021A248C1742BE02146A1A062
:1019900007F0AAFB4FF0FF30B8E79D4A1268D178F4
:1019A0009B4A526810786B460122FFF71DF910B16F
:1019B0004FF0FF30AAE79DF8000000F00F042CB9AB
:1019C0009E4807F091FB4FF0FF309FE7042C06D1B3
:1019D0009BA007F089FB01218D48C17402E0002122
:1019E0008B48C174FF218A488172FF2088490872A0
:1019F000FF2187484172C1724FF6FF71C181FF21FB
:101A0000017481740121017380F82210002180F893
:101A100023104175017516300160416081601638F0
:101A200080F8241080F82510C1844FF4FA60FFF785
:101A30001AFF10B14FF0FF3068E70220FFF7D1FE28
:101A400010B14FF0FF3061E72A20FFF7D2FD10B14F
:101A50004FF0FF305AE73220FFF777FE10B14FF01A
:101A6000FF3053E70020FFF78FFD10B14FF0FF303C
:101A70004CE70020FFF7F8FB10B14FF0FF3045E7CF
:101A80000020FFF78CFB002040E770477CB5044640
:101A90000D465F48807A00F0700010B94FF0FF30BB
:101AA0007CBD5B4A1268117B594A526810786B46BC
:101AB0000622FFF799F810B14FF0FF30F0E79DF8DC
:101AC00001009DF8001040EA012000B220809DF83E
:101AD00003009DF8021040EA012000B260809DF8EA
:101AE00005009DF8041040EA012000B2A08015B165
:101AF0002846FFF7CAFF0020D2E77CB504460D4612
:101B00004348807A00F0080010B94FF0FF307CBDE8
:101B10003F4A1268517B3E4A526810786B46062253
:101B2000FFF762F810B14FF0FF30F0E79DF80100C9
:101B30009DF8001040EA012000B220809DF80300CB
:101B40009DF8021040EA012000B260809DF8050077
:101B50009DF8041040EA012000B2A08015B128468B
:101B6000FFF793FF0020D2E72DE9FE4F05460C4614
:101B70002748807A18B94FF0FF30BDE8FE8F244A1D
:101B80001268917B224A5268107802AB0222FFF75A
:101B90002BF810B14FF0FF30EFE79DF809009DF8EA
:101BA000081040EA012006B214B12046FFF76DFF8D
:101BB00017494968C88807F018F81549019049681D
:101BC000B1F9080007F008F88346304607F004F83A
:101BD0005946009006F002FE8246019906F036FE54
:101BE00081461F4906F0A8FD80464FF08F4106F060
:101BF000FBFD074607F01CF828600020BDE710B584
:101C000088B004461CB94FF0FF3008B010BD29E081
:101C1000AC000020556E737570706F72746564202F
:101C2000736F6674776172652070726F6475637428
:101C3000207265762025642E0A00000038AC00086A
:101C400048616C662073656E73697469766974792E
:101C5000207061727420666F756E642E0A00000039
:101C600000000C42206830B9606820B9A06810B943
:101C7000002008B010BDFA494968087806AB032275
:101C80001146FEF7B1FF10B14FF0FF30F1E79DF8BC
:101C90001800082101EB201000F00F00ADF8000043
:101CA0009DF8190001EB201000F00F00ADF80200C4
:101CB0009DF81A0001EB201000F00F00ADF80400B1
:101CC00020684100BDF90000403091FBF0F000B207
:101CD000ADF8100060684100BDF90200403091FB92
:101CE000F0F000B2ADF81200A0684100BDF90400A8
:101CF000403091FBF0F000B2ADF81400D8494968CB
:101D0000087806AB06221146FEF76EFF10B14FF0C1
:101D1000FF30AEE79DF819009DF8181040EA012049
:101D200000B2ADF808009DF81B009DF81A1040EABB
:101D3000012000B2ADF80A009DF81D009DF81C10AE
:101D400040EA012000B2ADF80C00BDF81000BDF86B
:101D50000810084400B2ADF81000BDF81200BDF83C
:101D60000A10084400B2ADF81200BDF81400BDF826
:101D70000C10084400B2ADF81400BDF81000000AC1
:101D80008DF81800BDF81000C0B28DF81900BDF82C
:101D90001200000A8DF81A00BDF81200C0B28DF8CA
:101DA0001B00BDF81400000A8DF81C00BDF81400DB
:101DB000C0B28DF81D00AA494968087806AB062212
:101DC0001146FEF7C6FF10B14FF0FF3051E700207B
:101DD0004FE70146A248007A30B1012807D0022817
:101DE00009D003280FD10AE0FA2008800EE04FF452
:101DF000FA7008800AE04FF47A70088006E04FF429
:101E0000FA60088002E00020088000BF00BF0020C8
:101E1000704701469248407A30B1012807D0022825
:101E200008D003280CD108E0022008700BE0042041
:101E3000087008E00820087005E01020087002E033
:101E40004FF0FF30704700BF8548C07C18B108785C
:101E50004006000E08700020F4E701468048C07A72
:101E6000082817D2DFE800F01704070A0D1013182E
:101E7000BC20088013E06220088010E02A2008803F
:101E80000DE0142008800AE00A20088007E0052001
:101E9000088004E000BF00BF0020088000BF00BF32
:101EA0000020704701466E4890F8240010B14FF0B2
:101EB000FF3070476A48C08908800020F9E7014672
:101EC00000200880401E704701464FF0FF307047E9
:101ED00001466348007A30B1012807D0022808D0B3
:101EE00003280CD108E05F4808600BE05E480860FA
:101EF00008E05E48086005E05D48086002E04FF0D9
:101F0000FF30704700BF0020FBE701465448407A8D
:101F100030B1012808D002280AD0032810D10BE0E4
:101F20004FF4804008800EE041F69C7008800AE083
:101F30004FF48050088006E04FF40060088002E013
:101F40004FF0FF30704700BF4548C07C10B1088893
:101F5000401008800020F5E701464148007C0870E9
:101F60000020704701463E48807A10B10120087079
:101F700001E0002008700020704738B5044638485A
:101F8000807A10B94FF0FF3038BD354A1268117CA5
:101F9000334A526810786B460222FEF725FE10B1D4
:101FA0004FF0FF30F0E79DF801009DF8001040EA87
:101FB000012000B220800020E6E72DE9FE4F074611
:101FC000884692461D46DDF830B00026002424489D
:101FD00090F8240010B1601EBDE8FE8F002028702C
:101FE0001F48807A10B94FF0FF30F5E71C48007C9D
:101FF00010B94FF0FF30EFE71948007C00F04000C7
:1020000008B1B01CC6B21648007C00F0200008B130
:10201000B01CC6B21248007C00F0100008B1B01C21
:10202000C6B20F48007C00F0080008B1B01DC6B26F
:102030000B4A1268917A0A4A526810786B4602225B
:10204000FEF7D2FD10B14FF0FF30C5E79DF801005B
:102050009DF8001040EA0129B1450BDA0020BBE7EA
:10206000AC000020000003430000834233330342EE
:1020700033338341FC4840684088B9EB600F17DD7B
:10208000F94A1268517CF84A526810786B4601226E
:10209000FEF7AAFD10B14FF0FF309DE79DF800005C
:1020A00000F0100020B1FFF783F96FF0010093E713
:1020B0005046FFF7EAFCEC4A1268D17AEA4A5268C5
:1020C00010786B463246FEF78FFD10B14FF0FF30AF
:1020D00082E799FBF6F0401E8BF800000020287084
:1020E000B4422AD0E048007C00F0080028B3601C0D
:1020F0001DF800001DF8041040EA012000B2A8F805
:102100000000E01C1DF80010A01C1DF8000041EAB2
:10211000002000B2A8F80200601D1DF80010201D6C
:102120001DF8000041EA002000B2A8F80400287859
:1021300040F008002870A01D84B2B44213D0CA48F1
:10214000007C00F0400070B1601C1DF800001DF81C
:10215000041040EA012000B23880287840F04000A6
:102160002870A01C84B2B44213D0BF48007C00F099
:10217000200070B1601C1DF800001DF8041040EA3A
:10218000012000B27880287840F020002870A01C40
:1021900084B2B44213D0B448007C00F0100070B197
:1021A000601C1DF800001DF8041040EA012000B278
:1021B000B880287840F010002870A01C84B200205D
:1021C0000AE7F8B504460F461646A74890F82400DB
:1021D00010B94FF0FF30F8BDA348807A10B94FF026
:1021E000FF30F8E7A04A1268917A9F4A5268107847
:1021F0006B460222FEF7F8FC10B14FF0FF30EAE721
:102200009DF801009DF8001040EA0125A54203DA7F
:1022100000203070401EDEE7934840684088B5EBF0
:10222000600F17DD904A1268517C8F4A526810780F
:102230006B460122FEF7D8FC10B14FF0FF30CAE721
:102240009DF8000000F0100020B1FFF7B1F86FF02A
:102250000100C0E7E2B2844B1B68D97A824B5B680D
:1022600018783B46FEF7C0FC10B14FF0FF30B2E7E4
:1022700095FBF4F0401E30700020ACE701467A4830
:1022800080F82210002070477CB5054676494968E1
:10229000087801AB04220D21FEF7A6FC08B1072047
:1022A0007CBD9DF80700C0F301109DF8041001F0FB
:1022B000E00140EAE1008DF800009DF80700C0F35E
:1022C00081009DF8051001F0E00140EAE1008DF881
:1022D00001009DF8070000F003009DF8061001F0D2
:1022E000E00140EAE1008DF8020000241CE01DF846
:1022F000040018B9002045F8240013E05B4845F8B5
:10230000240006E055F82400594906F06DFA45F816
:1023100024001DF80400401EC0B20DF8040000287F
:10232000F0D100BF601CC4B2032CE0DB0020B7E793
:102330002DE9FE4F06460F4600256846FFF7A4FF2D
:10234000002442E056F8240057F82410A0EB010ABC
:10235000BAF1000F01DB514601E0CAF10001084665
:1023600006F03AFC83464FF08F4106F06FFA804644
:102370005DF82400002106F007FD16D05DF824105A
:10238000404606F063FA82464FF07E5106F026FA88
:10239000814629F0004A3748416A504606F0FEFC63
:1023A00012D20120A04005430EE03248C1694046E8
:1023B00006F0EAFC05D32F48016A404606F0EEFC21
:1023C00002D20120A0400543641C032CBADB28463E
:1023D000BDE8FE8F2DE9FC5F06460F460025224929
:1023E0004968087801AB03220D21FEF7FDFB10B10F
:1023F0000720BDE8FC9F9DF8040000F01F008DF849
:1024000004009DF8050000F01F008DF805009DF800
:10241000060000F01F008DF80600002462E056F868
:10242000240057F82410A0EB010BBBF1000F01DBD7
:10243000594601E0CBF10001084606F0CDFB4FF014
:102440008F41009006F002FA814601A8005DC0B3FA
:102450000849086806F0C9FB83465946064806F055
:10246000F5F980460FE00000AC0000207B14AE3E82
:102470001D5A843F289D000800B04C45FE49404647
:1024800006F0B2F9804601A8005D401EC0B201A965
:1024900008550028F2D14146484606F0D7F9834650
:1024A0004FF07E5106F09AF982462AF0004BF3482D
:1024B0008169584606F072FC13D20120A040054302
:1024C0000FE0FFE7ED480169484606F05DFC05D3E3
:1024D000EA484169484606F061FC02D20120A0406A
:1024E0000543641C032C9ADB284682E72DE9F04F54
:1024F00087B005460C46914601208DF8100000205B
:102500008DF81100DE4A1268917CDD4A526810781D
:1025100004AB0222FEF71DFC20B14FF0FF3007B0E4
:10252000BDE8F08FC82001F0ABFD00208DF8100051
:10253000D34A1268D17BD24A5268107804AB012288
:10254000FEF707FC10B14FF0FF30E8E7CC4A126805
:102550005179CB4A5268107804AB0122FEF7F9FB9F
:1025600010B14FF0FF30DAE7C54A1268917CC44AD7
:102570005268107804AB0122FEF7EBFB10B14FF06C
:10258000FF30CCE7BE4A1268D17DBD4A5268107850
:1025900004AB0122FEF7DDFB10B14FF0FF30BEE7C8
:1025A000B74A12681179B64A5268107804AB012212
:1025B000FEF7CFFB10B14FF0FF30B0E70C208DF8E5
:1025C0001000AF4A12681179AD4A5268107804AB16
:1025D0000122FEF7BEFB10B14FF0FF309FE70F2046
:1025E00001F04EFDA648806A407A8DF81000A44A9A
:1025F00012689178A24A5268107804AB0122FEF763
:10260000A8FB10B14FF0FF3089E79D48806A007A3F
:102610008DF810009A4A12685178994A52681078D9
:1026200004AB0122FEF795FB10B14FF0FF3076E7C7
:10263000B9F1000F07D09248806A807A40F0E0003C
:102640008DF8100004E08E48806A807A8DF81000C2
:102650008B4A126891798A4A5268107804AB012239
:10266000FEF777FB10B14FF0FF3058E7B9F1000FDC
:1026700007D08348806AC07A40F0E0008DF81000EF
:1026800003E07E48C07A8DF810007D4A1268D17947
:102690007B4A5268107804AB0122FEF75AFB10B156
:1026A0004FF0FF303BE7B9F1000F02D0C82001F036
:1026B000E7FC40208DF81000714A12681179704AC9
:1026C0005268107804AB0122FEF743FB10B14FF0C3
:1026D000FF3024E778208DF81000694A126851799C
:1026E000674A5268107804AB0122FEF732FB10B142
:1026F0004FF0FF3013E76149888901F0C1FC0020E9
:102700008DF810005E4A126851795D4A526810785F
:1027100004AB0122FEF71DFB10B14FF0FF30FEE6C7
:10272000574A1268917A564A5268107804AB0222CE
:10273000FEF75AFA10B14FF0FF30F0E69DF81100A5
:102740009DF8101040EA012B0C209BFBF0F0C6B264
:102750000020A86068602860A060606020608246F9
:1027600065E0474A1268D17A454A5268107804AB4E
:102770000C22FEF739FA10B14FF0FF30CFE69DF88A
:1027800011009DF8101040EA012000B2ADF80800D9
:102790009DF813009DF8121040EA012000B2ADF838
:1027A0000A009DF815009DF8141040EA012000B2BF
:1027B000ADF80C00BDF90810206808442060BDF990
:1027C0000A10606808446060BDF90C10A0680844F5
:1027D000A0609DF817009DF8161040EA012000B295
:1027E000ADF800009DF819009DF8181040EA01208E
:1027F00000B2ADF802009DF81B009DF81A1040EAE7
:10280000012000B2ADF80400BDF9001028680844AA
:102810002860BDF90210686808446860BDF90410BA
:10282000A8680844A8600AF1010000F0FF0AB24558
:1028300097DB1248D0F800C02868C117090441EAA4
:102840001041070462460023384605F025FF324652
:102850000023CDE9020105F01FFF28600748D0F8EA
:1028600000C06868C117090441EA104107046246C4
:102870000023384606E0000054E3853F289D000809
:10288000AC00002005F008FF32460023CDE902012C
:1028900005F002FF6860FE48D0F800C0A868C117C4
:1028A000090441EA1041070462460023384605F056
:1028B000F3FE32460023CDE9020105F0EDFEA860EB
:1028C000F348D0F804C02168C817000440EA114852
:1028D0000F04624600233846414605F0DDFE3246CD
:1028E0000023CDE9020105F0D7FE2060E848D0F8CA
:1028F00004C06068C117090441EA10410704624638
:102900000023384605F0C8FE32460023CDE9020117
:1029100005F0C2FE6060DE48D0F804C0A068C117B0
:10292000090441EA1041070462460023384605F0D5
:10293000B3FE32460023CDE9020105F0ADFEA060F2
:10294000A068002804DDA068A0F58030A06003E046
:10295000A06800F58030A0600020E0E538B50446AE
:10296000CC4890F82400A04201D1002038BD24B307
:10297000C84890F8250010B94FF0FF30F6E7002066
:10298000FEF74AFB0020FEF76FFCC249C88CFEF739
:10299000DCFE00200090BF49496808786B460122A0
:1029A0002321FEF7D6F90121BA4880F8241001202E
:1029B000FEF732FBFEF7FCFC13E00020FEF72CFBD9
:1029C000B448007C0090B349496808786B460122FE
:1029D0002321FEF7BEF90021AE4880F82410FEF74F
:1029E000E7FC0020C2E72DE9F04F8DB083460F468B
:1029F00002200C90A74890F8240020B10020FFF797
:102A0000ADFF012600E0002603A8FFF7E2F905A8C4
:102A1000FFF7FFF901A8FFF720FA02A8FFF742FA33
:102A20009C4890F80AA004A8FFF796FA002407E053
:102A3000002239465846FFF759FD00B902E0641CF0
:102A4000022CF5DB00BF022C01D1002528E0002478
:102A500007E0012206A909A8FFF748FD00B902E036
:102A6000641C022CF5DB00BF022C01D1002517E00D
:102A700006A93846FFF75CFC00F0FF0809A9584694
:102A8000FFF7A8FC00F0FF090025B9F1000F01D104
:102A900045F00105B8F1000F01D145F0020500BF76
:102AA000FF207C490872FF217A484172C1724FF6BB
:102AB000FF71C181FF218172017401210173BDF891
:102AC0000C00FEF7D0FE9DF81400FEF78AFEBDF85C
:102AD0000400FEF78EFDBDF80800FEF736FE5046F6
:102AE000FEF75DFB9DF81000FEF74EFD16B10120CC
:102AF000FFF734FF28460DB0BDE8F08FF8B5044667
:102B00000D46164616B94FF0FF30F8BD6148807A81
:102B100010B94FF0FF30F8E720128DF80000E0B256
:102B20008DF801009DF8010028445A4949684989F7
:102B3000884202DD4FF0FF30E7E7564A1268117E07
:102B4000544A526810786B460222FEF702F910B11F
:102B50004FF0FF30D9E7EAB24E4B1B68597D4D4B21
:102B60005B6818783346FEF7F4F810B14FF0FF3089
:102B7000CBE70020C9E7F8B504460D46164616B95E
:102B80004FF0FF30F8BD4348807A10B94FF0FF3066
:102B9000F8E720128DF80000E0B28DF801009DF8F2
:102BA000010028443B4949684989884202DD4FF0C9
:102BB000FF30E7E7374A1268117E364A52681078CC
:102BC0006B460222FEF7C5F810B14FF0FF30D9E78F
:102BD000EAB2304B1B68597D2E4B5B681878334640
:102BE000FEF702F810B14FF0FF30CBE70020C9E745
:102BF0002DE9F04385B005460E4690469946254896
:102C000090F8250020B14FF0FF3005B0BDE8F0830B
:102C100016B94FF0FF30F8E7002423E0281B1028F6
:102C200001DD102000E0281B87B23219394620460A
:102C3000FFF764FF10B14FF0FF30E6E701AA394615
:102C40002046FFF798FF10B14FF0FF30DDE7301955
:102C50003A4601A905F063FD10B16FF00100D4E719
:102C6000E01984B2AC42D9DB4FEA28208DF800008D
:102C700008F0FF008DF80100064A1268917E054AAF
:102C8000526810786B460222FEF763F838B103E011
:102C9000289D0008AC0000204FF0FF30B5E701216F
:102CA000FE4880F82510A0F826900020ADE70146E8
:102CB000FA4890F824000870002070474FF0FF3069
:102CC000704702464FF0FF30704701464FF0FF302B
:102CD0007047F8B505460F461446002C70D0B5F580
:102CE000FF5F01DDFF2605E0202D01DA012601E06E
:102CF000C5F3471607B90127282C02DD4FF0FF3036
:102D0000F8BDE648407D28BBE44890F8240038B17F
:102D10000020FFF723FE0121E04880F8201003E0A7
:102D20000021DE4880F82010DC481630FFF751F80B
:102D3000DA481830FFF76DF8D8481A30FFF78DF8E9
:102D4000D6481C30FFF7AEF8D448817A81771F301F
:102D5000FFF702F90020FEF75FF90020FEF788FC7C
:102D600000208DF80000CD4A12689178CB4A526855
:102D700010786B460122FDF7ECFF10B14FF0FF30E9
:102D8000BEE740208DF80000C44A1268D17BC34AD8
:102D9000526810786B460122FDF7DBFF00B165E059
:102DA0008DF800608DF80170BC4A1268117ABB4A38
:102DB000526810786B460222FDF7CBFF08B155E050
:102DC00047E0052001F05CF9B448407A072101EBA7
:102DD000C000C0B28DF80000B04A1268D179AF4A85
:102DE000526810786B460122FDF7B3FF00B13DE059
:102DF00020208DF80000012C03D100208DF8010067
:102E00000EE0052C03DC01208DF8010008E0142CF5
:102E100003DC02208DF8010002E003208DF80100A0
:102E20009DF80100072101EB8010C0B28DF8010070
:102E30009A4A1268917C994A526810786B4602222D
:102E4000FDF787FF00B111E0012194484175002092
:102E500056E7924A1632002103E0505C00B105E0CB
:102E6000491C0C29F9D34FF0FF3049E7FF208B496B
:102E70000872FF2189484172C1724FF6FF71C1810A
:102E8000FF2181720174012101730146887FFEF7E1
:102E900086F98249C88AFEF7E6FC8049087EFEF77B
:102EA000A0FC7E49488BFEF7A4FB7C49888BFEF78B
:102EB0004CFC7A49C87FFEF767FB784890F8200001
:102EC00010B10120FFF74AFD002174484175002030
:102ED00016E770B588B002A905A8FFF784FD04467F
:102EE000032C40D101A8FEF7F3FF059805F074FE0E
:102EF0000646019905F078FC054605F099FE059017
:102F0000069805F069FE0646019905F06DFC054638
:102F100005F08EFE0690079805F05EFE06460199C4
:102F200005F062FC054605F083FE079005A800F059
:102F300050FA6846FEF7E9FF00200090BDF8001047
:102F4000029848430290BDF800100398484303904C
:102F5000BDF8001004984843049002A800F0CCFA91
:102F6000002008B070BD0120FBE7014691F9002068
:102F7000002A01DD00201EE091F90020002A01DA7C
:102F8000042018E091F90120002A01DD012012E05F
:102F900091F90120002A01DA05200CE091F90220C4
:102FA000002A01DD022006E091F90220002A01DA60
:102FB000062000E00720704710B504462046FFF7C2
:102FC000D4FF0346E01CFFF7D0FF43EAC00083B202
:102FD000A01DFFF7CAFF43EA801083B2184610BD58
:102FE00070B50024FDF7F5FEFEF77FFC00283AD10E
:102FF0007820FEF7D4F8C4B20CB1012070BD78205F
:10300000FEF7C2FAC4B20CB10220F7E7C820FEF7FF
:103010009CFBC4B20CB10320F0E700F03FF9C4B24E
:103020000CB10420EAE71E48FFF7C6FF054600F092
:103030003FF9C4B20CB10520E0E740F2731000F094
:1030400078FDC4B20CB10620D8E7C82000F0EAFA37
:10305000C4B20CB10720D1E70120FFF77FFCC4B256
:103060001CB10920CAE70A20C8E70020C6E72DE9FD
:10307000F04F99B004460D4616464FF07E574FF07C
:1030800000084FF000094FF0000A12A813A918AB6E
:103090000EAACDE9001014A916A803E0AC00002088
:1030A000D800002000F0A4FE18B1012019B0BDE83E
:1030B000F08FBDF84C0000F4807000287ED00E9890
:1030C00005F08AFD83464FF09D4105F0BFFB0746A2
:1030D0000F9805F081FD83464FF09D4105F0B6FB4A
:1030E0008046109805F078FD83464FF09D4105F02D
:1030F000ADFB8146119805F06FFD83464FF09D4171
:1031000005F0A4FB824639464FF0804005F06CFB89
:103110004946059005F068FB414607904FF0404056
:1031200005F062FB5146059005F05EFB069007999D
:1031300005F002FB834605F0E0FDCDE9080106F04D
:10314000A7FA4FF06632544BCDE90A0105F063FC53
:10315000CDE90C0105F0FCFD206049464FF08040B0
:1031600005F042FB4946029005F03EFB41460490C3
:103170004FF0404005F038FB4146029005F034FB2B
:103180000390049905F02AFB83464FF07E5105F029
:10319000D3FA059005F0B1FDCDE9080139464FF0AD
:1031A000804005F021FB4146039005F01DFB494698
:1031B00004904FF0804005F017FB00E068E05146B6
:1031C000039005F011FB8346049905F0B5FA0590CC
:1031D00005F093FDCDE90601DDE9082306F0A0FC2A
:1031E0004FF066322C4BCDE90A0105F014FCCDE915
:1031F0000C0105F0ADFD28605146504605F0F4FA8B
:1032000049460490484605F0EFFA4146039040468F
:1032100005F0EAFA39460190384605F0E5FA0090E3
:10322000019905F089FA0290039905F0D7FA8346CF
:10323000049905F0D3FA059005F05FFDCDE908018A
:103240005146384605F0D0FA49460490404605F00C
:10325000CBFA0390049905F06FFA4FF08041059086
:1032600005F0C2FA834605F048FDCDE90601DDE927
:10327000082306F055FC4FF06632074BCDE90A01F2
:1032800005F0C9FBCDE90C0105F062FD306001E0FD
:1032900002200BE7002009E766A64C4010B5C823C2
:1032A0004FF48062F74940F6F630FFF7A1FC10BDFD
:1032B00010B586B00446F4A000680390F3A000683F
:1032C0000290F3A000680190F2A00068009004F062
:1032D000030003A9085C8DF8140003A8C4F3C1011E
:1032E000405C8DF8150003A8C4F38111405C8DF893
:1032F000160004F0030002A9085C8DF8100002A873
:10330000C4F3C101405C8DF8110002A8C4F381111F
:10331000405C8DF8120005AA032140F22640FFF719
:10332000EDFB18B14FF0FF3006B010BD04AA032129
:1033300040F22A40FFF7E2FB10B14FF0FF30F3E715
:10334000019805900098049004F0040058B19DF88D
:10335000140040F001008DF814009DF8100040F0BA
:1033600001008DF8100004F0200058B19DF8150000
:1033700040F001008DF815009DF8110040F00100AB
:103380008DF8110004F4807058B19DF8160040F0DB
:1033900001008DF816009DF8120040F001008DF834
:1033A000120005AA03214FF48860FFF7A7FB10B1B4
:1033B0004FF0FF30B8E704AA032140F23140FFF795
:1033C0009DFB10B14FF0FF30AEE7B3480481002001
:1033D000AAE71FB50446B048007A00F0030054F88D
:1033E00020000190AC48007A00F0040010B1019870
:1033F00040420190A848007AC0F3C10054F8200070
:103400000290A548007A00F0200010B102984042D6
:103410000290A148007AC0F3811054F82000039074
:103420009D48008900F4807010B1039840420390D9
:103430009A49019880FB0101800F40EA81000190C8
:103440009649029880FB0110820042EA9170029036
:103450009249039880FB0110820042EA9170039028
:103460000198000E8DF800000198000C8DF8010005
:103470000198000A8DF802000198C0B28DF803008F
:103480006A4604214FF47470FFF738FB18B14FF00F
:10349000FF3004B010BD0298000E8DF800000298B5
:1034A000000C8DF801000298000A8DF802000298C5
:1034B000C0B28DF803006A4604214FF47570FFF71F
:1034C0001DFB10B14FF0FF30E3E70398000E8DF8BD
:1034D00000000398000C8DF801000398000A8DF895
:1034E00002000398C0B28DF803006A4604214FF42D
:1034F0007670FFF703FBCCE770B588B0064601A8ED
:10350000FEF703FDBDF804000021C90341EA504560
:10351000C4036148007A00F0030056F820000590CB
:103520005D48007A00F0040010B105984042059013
:103530005948007AC0F3C10056F82000069056485A
:10354000007A00F0200010B10698404206905248E0
:10355000007AC0F3811056F8200007904E48008989
:1035600000F4807010B10798404207900598C11789
:10357000A0FB042301FB043100FB0510810041EA9C
:10358000927005900698C117A0FB042301FB04313B
:1035900000FB0510810041EA927006900798C11760
:1035A000A0FB042301FB043100FB0510810041EA6C
:1035B000927007900598000E8DF808000598000C91
:1035C0008DF809000598000A8DF80A000598C0B228
:1035D0008DF80B000698000E8DF80C000698000C74
:1035E0008DF80D000698000A8DF80E000698C0B2FE
:1035F0008DF80F000798000E8DF810000798000C4A
:103600008DF811000798000A8DF812000798C0B2D3
:103610008DF8130002AA0C214FF42570FFF76EFA03
:1036200008B070BD30B585B004461DA207CA02AB14
:1036300007C3C82C03DD4FF0FF3005B030BDC820F4
:1036400090FBF4F0401E85B2280A8DF80000E8B225
:103650008DF801006A46022140F21620FFF74EFA6B
:1036600010B14FF0FF30E8E702AA0C2140F6C1206C
:10367000FFF744FA10B14FF0FF30DEE706488481CF
:103680000020DAE7509D00084CCD6C000CC92C00DE
:1036900036567600264666009C01002009E3CA02E1
:1036A000FEF2ABC4AAF1DFDFBBAFDFDF0146FC48AF
:1036B00080890880002070472DE9FC4706460F46A8
:1036C00006F0070010B1B7F5C86F03DD4FF0FF300B
:1036D000BDE8FC87384605F088FA8146F14905F0D7
:1036E000B5F880466846FEF794FB9DF80000022876
:1036F00006D0042816D0082826D0102848D135E056
:103700004FF08D41404605F06FF8814605F0A9FA6B
:1037100084B2E549404605F067F8814605F0A1FA14
:1037200085B238E04FF08C41404605F05DF88146A7
:1037300005F097FA84B2DD49404605F055F8814618
:1037400005F08FFA85B226E04FF08B41404605F038
:103750004BF8814605F085FA84B2D549404605F01C
:1037600043F8814605F07DFA85B214E04FF08A41B6
:10377000404605F039F8814605F073FA84B2CD4928
:10378000404605F031F8814605F06BFA85B202E05B
:103790004FF0FF309CE700BF20128DF80400E0B22C
:1037A0008DF8050028128DF80600E8B28DF80700A4
:1037B00006F00100A0B101AA02214FF4EA70FFF760
:1037C0009DF910B14FF0FF3082E70DF106020221A2
:1037D0004FF49270FFF792F910B14FF0FF3077E796
:1037E00006F00200A0B101AA02214FF4EC70FFF72D
:1037F00085F910B14FF0FF306AE70DF106020221A2
:103800004FF49470FFF77AF910B14FF0FF305FE793
:1038100006F00400A0B101AA02214FF4EE70FFF7F8
:103820006DF910B14FF0FF3052E70DF106020221A1
:103830004FF49670FFF762F910B14FF0FF3047E791
:10384000002045E738B504460020009004F0010050
:1038500020B19DF8000040F03000009004F002001C
:1038600020B19DF8000040F00C00009004F004002E
:1038700020B19DF8000040F0030000906A4601214D
:103880004FF4A470FFF73AF938BD38B50446012C5F
:1038900001DA012402E0042C00DD0424601EC0B221
:1038A00000906A46012140F24F10FFF727F938BD1A
:1038B00038B50446052094FBF0F085B228128DF847
:1038C0000000E8B28DF801006A4602214FF4EF7063
:1038D000FFF714F938BD38B50446052094FBF0F025
:1038E00085B228128DF80000E8B28DF801006A4612
:1038F00002214FF4ED70FFF701F938BDF8B5054628
:103900000E464FF47A7095FBF0F000FB06F4200EA3
:103910008DF80000200C8DF80100200A8DF80200BF
:10392000E0B28DF803006A4604214FF4AE70FFF751
:10393000E5F8F8BD38B50446052094FBF0F084B2F4
:1039400020128DF80000E0B28DF801006A460221D5
:103950004FF4AD70FFF7D2F838BD38B504460520F6
:1039600094FBF0F084B220128DF80000E0B28DF8E4
:1039700001006A4602214FF4AC70FFF7BFF838BD72
:1039800038B5044614B94FF0FF3038BD6A460421FB
:103990004FF45870FFF7EFF810B14FF0FF30F4E735
:1039A0009DF8000000069DF8011040EA01409DF8D6
:1039B000021040EA01209DF8031008432060002017
:1039C000E3E738B50446200E8DF80000200C8DF892
:1039D0000100200A8DF80200E0B28DF803006A466B
:1039E00004214FF45870FFF789F838BD38B5044604
:1039F00014B94FF0FF3038BD6A4604214FF471709E
:103A0000FFF7B9F810B14FF0FF30F4E79DF8000070
:103A100000069DF8011040EA01409DF8021040EABE
:103A200001209DF80310084300EB80008000206017
:103A30000020E0E738B504461420B4FBF0F4200E73
:103A40008DF80000200C8DF80100200A8DF802008E
:103A5000E0B28DF803006A4604214FF47170FFF75D
:103A60004DF838BD38B5044664B120208DF800000B
:103A700028208DF8010030208DF8020038208DF8C4
:103A8000030004E0A3220421684604F036FE6A46DF
:103A9000042140F69E20FFF731F8FDF789FC38BD80
:103AA0009C01002000004843000040460000C04543
:103AB000000040450000C04438B5044664B1C02051
:103AC0008DF80000C2208DF80100C4208DF802009E
:103AD000C6208DF8030004E08B220421684604F020
:103AE0000CFE6A46042140F69820FFF707F8FDF720
:103AF0005FFC38BD3EB504466CB1FDA1D1E90020A4
:103B00008968CDE9002002916A4609214FF4976047
:103B1000FEF7F4FF3EBDF9A2D2E900109268CDE9AC
:103B2000010200916A4609214FF49760FEF7E6FF13
:103B3000F0E73EB5044602208DF80000CA208DF85B
:103B40000100E3208DF8020009208DF803006A4689
:103B500004216820FEF7D2FFA3208DF8000004F0B6
:103B6000400048B1C0208DF80100C8208DF8020047
:103B7000C2208DF8030006E0A3208DF801008DF827
:103B800002008DF8030004F4C07048B1C4208DF821
:103B90000400CC208DF80500C6208DF8060006E054
:103BA000A3208DF804008DF805008DF80600A320F1
:103BB0008DF807008DF808008DF809006A460A2183
:103BC00040F6A720FEF79AFF04F0030018B120206A
:103BD0008DF8000002E0D8208DF800006A4601212F
:103BE00040F6B620FEF78AFF04F0200018B101204D
:103BF000FFF780FF02E00020FFF77CFF04F4C070B5
:103C000008B304F4807060B1B2208DF800008B20FE
:103C10008DF80100B6208DF802009B208DF803007E
:103C20000BE0B0208DF8000080208DF80100B4205A
:103C30008DF8020090208DF803006A46042140F6BA
:103C4000A220FEF75BFF04F0010020B3F8208DF8FE
:103C500000006A4601214FF40B60FEF74FFFFA2186
:103C60000720FFF729FD0720FFF7ECFD0120FFF7F4
:103C70000CFE6420FFF71CFE4FF4FA70FFF72BFEDA
:103C8000C821A148FFF73AFE2820FFF753FE0A207B
:103C9000FFF763FE08E0D8208DF800006A46012196
:103CA0004FF40B60FEF72AFF04F0020018B1D92090
:103CB0008DF8000002E0D8208DF800006A4601214E
:103CC00040F23D70FEF71AFF04F0040018B1012025
:103CD000FFF7F2FE02E00020FFF7EEFE04F0100016
:103CE00018B10120FFF7BEFE02E00020FFF7BAFE88
:103CF00044F0080085494881FDF75AFB00208349BC
:103D0000887304F0400018B10846807B801D8873DA
:103D100004F4C07020B17D48807B801D7B4988738E
:103D200004F0140020B17948807B10307749887303
:103D300004F0030020B17548807B001D734988732F
:103D400000203EBD01467148408908800020704730
:103D50002DE9F0410446E07800F0C006E07800F07C
:103D60003F05607800F0010098B1EF102846E91790
:103D700005EB5171C910A5EBC101491C01F0FF0809
:103D80006248006820B16148414602683846904761
:103D900000BF607800F0080030B15C48406818B19E
:103DA000B0115A4A516888470020BDE8F08110B52B
:103DB00086B0044656A207CA03AB07C357A207CA78
:103DC0008DE80700012C09D0022C0ED103AA0B218B
:103DD00040F68220FEF792FE06B010BD6A460B2127
:103DE00040F68220FEF78AFEF6E74FF0FF30F3E759
:103DF0002DE9F04F8DB00746884615469946DDE916
:103E0000166B0024002030804049887B5A4605A963
:103E1000FEF7D7F918B1601E0DB0BDE8F08F3B4832
:103E2000807A00F01400002861D09DF8140000068C
:103E30009DF8151040EA01409DF8161040EA012057
:103E40009DF81710084328609DF8180000069DF89B
:103E5000191040EA01409DF81A1040EA01209DF82F
:103E60001B10084368609DF81C0000069DF81D109B
:103E700040EA01409DF81E1040EA01209DF81F1005
:103E80000843A8609DF8200000069DF8211040EA34
:103E900001409DF8221040EA01209DF823100843BC
:103EA000E86004F11000C4B228680014019068684A
:103EB00000140290A86800140390E86800140490AD
:103EC00001984043029901FB0100039901FB0100A5
:103ED000049901FB010ABAF1706F02DBBAF1885F45
:103EE00022DDFDF765FA00203080401E94E721E0D6
:103EF000B8AAB38DB4980D355D000000B8AAAAAA7F
:103F0000B088C3C5C700000009E3CA029C010020B5
:103F1000D8B1B9F38BA391B609B4D900DAB1B9F32A
:103F20008BA391B6DAB4DA00B6F9000040F48070E1
:103F3000308000BF3448807A00F0400020B305A9EB
:103F4000601C085C095D40EA012000B2A8F800008E
:103F500005A9E01C095C05AAA01C105C41EA002030
:103F600000B2A8F8020005A9601D095C201D105CC4
:103F700041EA002000B2A8F80400A01DC4B2B6F9BE
:103F8000000040F0080030801F48408900F4C070F5
:103F900008B305A9601C085C095D40EA012000B275
:103FA000388005A9E01C095C05AAA01C105C41EA48
:103FB000002000B2788005A9601D095C201D105CFE
:103FC00041EA002000B2B880A01DC4B2B6F90000DA
:103FD00040F0700030800C48807A00F0030018B187
:103FE00005A90819FFF7B4FE4846FDF74EFD00206D
:103FF00012E701460448016000207047014602486C
:1040000041600020704700009C010020002106E074
:104010000A2100BF0A1EA1F1010399B2FAD1021EC2
:10402000A0F1010398B2F3D17047002107E042F6F6
:10403000E06100BF0A1EA1F1010399B2FAD1021E8C
:10404000A0F1010398B2F2D17047014601EBC10221
:104050004FF0E0235A6100229A6101221A6100BFE9
:104060004FF0E022106900F001021AB100F4803232
:10407000002AF5D000224FF0E0231A619A617047C0
:10408000014642F228324A434FF0E0235A610022AF
:104090009A6101221A6100BF4FF0E022106900F01E
:1040A00001021AB100F48032002AF5D000224FF04C
:1040B000E0231A619A61704708B50121694802F04E
:1040C00078F80121042002F05FFA0121082002F0B3
:1040D0005BFA0121084602F057FA4FF40040ADF8B0
:1040E000000003208DF8020010208DF803006946BF
:1040F0005D4801F08DFF0820ADF8000048208DF8E4
:1041000003006946594801F083FF1020ADF8000014
:1041100048208DF803006946544801F079FF08BD36
:1041200010B504F038FAFFF7C7FFFCF732F901F0D9
:1041300061FB01F044FCC820FFF777FF1E2001F06F
:1041400060FC0821484802F010F801F0B8FD484929
:1041500008600846006810F1020F03D208460068A4
:1041600000280BDA0020424908600320414908700A
:104170000846007801F08DFC01F0E1FC3C48006845
:10418000032832DA3A480068401C3949086008467A
:10419000006801F083FD38A001F061FB4FF47A70F4
:1041A000FFF76EFF37A001F05AFB4FF47A70FFF76C
:1041B00067FF39A001F053FB4FF47A70FFF760FFFF
:1041C00038A001F04CFB4FF47A70FFF759FF3BA089
:1041D00001F045FB4FF47A70FFF752FF3AA001F06F
:1041E0003EFB4FF47A70FFF74BFF10BD10B500F0A7
:1041F00064FBFCF704F9FCF75EF800F016FA00F037
:104200006BF801F04CF801F0BEF91E2001F0F9FB4B
:104210006420FFF735FFFCF7AAFCFEF7E1FE2C490E
:10422000087008E00120134908700846007801F082
:1042300030FC01F084FC264800780028F2D10220EE
:104240000C4908700846007801F023FC01F077FC67
:1042500000F082FA00F088FA01F0A3FD00201D4969
:10426000087010BD0002300000080140000C014041
:10427000E80000201501002041542B434E30310D41
:104280000A00000041542B4244536D6172742D4367
:1042900061720D0A0000000041542B435230300D72
:1042A0000A00000041542B424D536D6172742D433E
:1042B00061722D446174610D0A00000041542B436A
:1042C0004130300D0A00000041542B435A0D0A00C2
:1042D000E40000200901002000206F4908604860C8
:1042E00088608861C86108626C48C8600020086105
:1042F0006B4848616B486C490860002048608860E2
:104300008861C86108626948C8606948086169488D
:104310004861002068490860486088608861C86119
:1043200008624FF08240C8604FF0814008614FF052
:104330007E50486170472DE9FC5F04460F461546E4
:104340001E4625B92068394604F048FAA061012DBF
:1043500012D12068394604F041FAA061A0693146C3
:1043600004F012FD08D886F000483146404604F0BB
:104370000BFD01D80020A061E1694FF0804004F0FE
:1043800033FA0090A16904F02CFA8346216A04F004
:10439000D3F98246616904F027FA8146A169206950
:1043A00004F022FA0090E169A06904F017FA83464C
:1043B000E16804F019FA8246009904F0BDF9494613
:1043C000019004F0B9F98046616804F0B5F96060C5
:1043D000E0692062A069E061606804F029FCBDE842
:1043E000FC9F2DE9F05F04460F4615461E4625B991
:1043F0002068394604F0F2F9A061012D13D120683C
:10440000394604F0EBF9A061A069314604F0BCFC28
:1044100009D886F000483146404604F0B5FC02D881
:104420000020A061A060A169A06804F085F9A060E7
:10443000E169A06904F0D2F98246616904F0D4F917
:104440008046A168206904F0CFF98246A169E0683E
:1044500004F0CAF98346514604F06EF9814641469C
:1044600004F06AF96060A069E061606804F0E0FB54
:10447000BDE8F09F70B504460E461546A06831466B
:1044800004F08CFC01D8A66005E0A068294604F081
:104490007BFC00D8A56070BDAC010020000020406E
:1044A000CDCC4C3E00007A44D00100208FC2F53CB8
:1044B0000AD7A33C0AD7233CF401002010B5012100
:1044C000042002F061F80121082002F05DF80121CA
:1044D000022002F066F810BD08B54020ADF80000DB
:1044E00003208DF8020018208DF8030069465C480F
:1044F00001F08EFD8020ADF8000003208DF8020051
:1045000018208DF803006946554801F081FD01200F
:10451000ADF8000003208DF8020018208DF803008C
:104520006946504801F074FD0220ADF800000320F8
:104530008DF8020018208DF803006946494801F003
:1045400067FD08BD00B587B00021474801F031FE86
:104550004FF4E150ADF804000020ADF80000ADF8D4
:104560000600ADF802006946404802F069FC0121EE
:104570003E4802F0C1FF6020ADF80C000120ADF80C
:104580000E000220ADF8140003A9384802F095FC93
:104590000821364803F0E0F86020ADF80C00012057
:1045A000ADF80E000220ADF8140003A92F4802F068
:1045B000C6FC08212D4803F0D8F86020ADF80C00A7
:1045C0000120ADF80E000220ADF8140003A9274821
:1045D00002F002FD0821254803F0D4F86020ADF870
:1045E0000C000120ADF80E000220ADF8140003A964
:1045F0001E4802F03CFD08211C4803F0CCF807B02F
:1046000000BD08B54FF4A06002F022F81D208DF81F
:10461000000000208DF801008DF8020001208DF8C7
:104620000300684602F019F808BD10B5FFF746FF11
:10463000FFF752FFFFF786FFFFF7E3FF00210B486C
:1046400003F0F2F90021094803F0F0F900210748CE
:1046500003F0EEF90021054803F0ECF910BD00006D
:1046600000080140000C014000081A00000400404E
:1046700010B50121084601F094FF10BD10B50121CD
:10468000202001F08EFF10BD0EB50121880703F038
:104690000DFA40F60F60ADF804001320ADF80000ED
:1046A0000020ADF80600ADF8020069464FF08040EA
:1046B00002F0C6FB01221146900702F038FF0121EB
:1046C000880702F019FF0EBD0EB50121454803F021
:1046D000EDF940F60F60ADF804001320ADF80000CE
:1046E0000020ADF80600ADF8020069463D4802F032
:1046F000A7FB012211463B4802F019FF012139486E
:1047000002F0FAFE0EBD08B54FF4A06001F0A0FF64
:104710001C208DF8000003208DF8010000208DF88A
:10472000020001208DF80300684601F096FF08BDE5
:1047300008B54FF4A06001F08BFF37208DF8000022
:1047400000208DF801008DF8020001208DF8030093
:10475000684601F082FF08BD10B5FFF789FFFFF73B
:1047600093FFFFF7D0FF10BD10B5FFF787FFFFF7EE
:10477000ABFFFFF7DDFF10BD10B51B480088401CE4
:104780001949088008460088B0F5967F09DB0020AB
:10479000088016480068C0431549C1F8940101F02B
:1047A00004FB0121880703F081F910BD10B5114801
:1047B0000088401C0F490880FBF737FE0D48008831
:1047C000052808DB00200B4908800120FBF73BFE91
:1047D0000220FBF738FEFCF7A4F80121014803F0A2
:1047E00065F910BD00140040EC0000209401214246
:1047F00000002142EE00002010B50121042001F04C
:10480000C3FE0121880301F0BFFE0121084601F02B
:10481000BBFE10BD08B54FF40070ADF800000320DA
:104820008DF8020018208DF803006946FE4801F05B
:10483000EFFB4FF48060ADF8000004208DF803001A
:104840006946F94801F0E4FB08BD1FB54FF4E130BB
:1048500000900020ADF80400ADF80600ADF80800A7
:10486000ADF80C000C20ADF80A006946EF4803F0E3
:1048700064F9012240F22551EC4803F0F6F90121D8
:10488000EA4803F0E6F94021E84803F0CAFA1FBD00
:1048900008B54FF4407001F0DBFE25208DF80000D4
:1048A00004208DF8010000208DF8020001208DF811
:1048B0000300684601F0D1FE08BD10B5FFF79CFF6C
:1048C000FFF7A8FFFFF7C1FFFFF7E2FF10BD70B5CC
:1048D00002460C46FF25FF2309E012F8010B80EA8F
:1048E0000301D348405C80EA0503D248455C201EA2
:1048F000A4F10106B4B2F0D143EA052070BD70B551
:1049000005460E46002400BF0CE0295DC74803F0B1
:104910000DFA00BF8021C54803F076FA0028F9D0CF
:10492000601C84B2B442F0DB70BD2DE9F0418AB066
:1049300005460E46C5208DF800000224A6F11000A1
:1049400021287CD2DFE800F0111A2B4368BEDBFE81
:10495000FDFCFB7B7B7B7B7BFAF9F8F7F6F5F4F348
:10496000F2F17B7B7B7B7B7BF0008DF801602A780A
:104970002046611CCCB20DF800203FE28DF80160AA
:104980006888C0F307222046611CCCB20DF80020D5
:10499000AA782046611CCCB20DF800202EE28DF8DA
:1049A0000160287900F008022046611CCCB20DF8A5
:1049B0000020E888020A2046611CCCB20DF80020D5
:1049C000AA792046611CCCB20DF8002016E28DF8C1
:1049D0000160A86804F045F9C0B2652190FBF1F2CE
:1049E00001FB1200C2B22146601CC4B20DF80120C6
:1049F0009149A86803F0F8FE804604F032F980B2CD
:104A0000642190FBF1F201FB1200C2B22046611C4E
:104A1000CCB20DF80020F1E18DF801608749E8681B
:104A200003F0E2FE804604F003F9C0F307222046BB
:104A3000611CCCB20DF800208049E86800E0D9E1A3
:104A400003F0D2FE804604F0F3F8C2B22046611CA7
:104A5000CCB20DF800207949286903F0C5FE8046E4
:104A600004F0E6F8C0F307222046611CCCB20DF832
:104A700000207249286903F0B7FE804604F0D8F898
:104A8000C2B22046611CCCB20DF800206B496869A7
:104A900003F0AAFE804604F0CBF8C0F307222046BC
:104AA000611CCCB20DF800206449686903F09CFEDB
:104AB000804604F0BDF8C2B22146601CC4B20DF8B5
:104AC00001209BE18DF801605D49A86903F034FE87
:104AD000804604F0C6F8C2B22046611CCCB20DF884
:104AE00000205749E86903F027FE804604F0B9F832
:104AF000C2B22046611CCCB20DF800207EE18DF8D8
:104B0000016020356868020E2046611CCCB20DF8A9
:104B100000206868C0F30740C2B22046611CCCB2D6
:104B20000DF80020A8880EE047E1F9E0F7E0F5E095
:104B3000F3E0F1E0EFE0EDE0EBE0E9E0E7E0C8E032
:104B4000A9E09EE036E0C0F30720C2B22046611C17
:104B5000CCB20DF800202A792046611CCCB20DF8A9
:104B6000002029792868000E40EA0120C2B22046C0
:104B7000611CCCB20DF8002028790204296842EAB1
:104B80001140C2B22046611CCCB20DF8002028882A
:104B90002979000A40EA0160C2B22046611CCCB209
:104BA0000DF8002015F820292046611CCCB20DF824
:104BB000002023E18DF80160A86A04F039F8C2B240
:104BC0002046611CCCB20DF800201B49A86A03F0F6
:104BD0000BFE804604F02CF800B2642190FBF1F249
:104BE00001FB1200C2B22046611CCCB20DF80020BD
:104BF000E86A04F01DF8C2B22046611CCCB20DF880
:104C000000200D49E86A03F0EFFD804604F010F83B
:104C100000B2642190FBF1F201FB1200C2B2204607
:104C2000611CCCB20EE000000008014000380140D9
:104C300046A9000846AA00080000C84200007A44BD
:104C4000000048420DF80020286B03F0F1FFC2B2CB
:104C50002046611CCCB20DF80020FB49286B03F004
:104C6000C3FD804603F0E4FF00B2642190FBF1F243
:104C700001FB1200C2B22046611CCCB20DF800202C
:104C8000BCE08DF8016095F834202046611CCCB260
:104C90000DF80020B2E08DF80160EC49A86B03F03C
:104CA000A3FD804603F0C4FFC0F307222046611C29
:104CB000CCB20DF80020E549A86B03F095FD8046C5
:104CC00003F0B6FFC2B22146601CC4B20DF8012049
:104CD00094E08DF80160DC49E86B03F085FD8046C7
:104CE00003F0A6FFC0F307222046611CCCB20DF8EA
:104CF0000020D549E86B03F077FD804603F098FF6C
:104D0000C2B22146601CC4B20DF8012076E000BF9B
:104D100000BF00BF00BF00BF00BF00BF00BF00BF9B
:104D20008DF80160002745E0A6F1200000EB40016E
:104D300005F1400000EB8100002101EB8701425C9E
:104D40002046611CCCB20DF80020A6F1200000EB3B
:104D5000400105F1400000EB8100012101EB8701DA
:104D6000425C2046611CCCB20DF80020A6F1200068
:104D700000EB400105F1400000EB8100022101EB56
:104D80008701425C2046611CCCB20DF80020A6F1E0
:104D9000200000EB400105F1400000EB8100032101
:104DA00001EB8701425C2146601CC4B20DF8012072
:104DB000781CC7B2032FB7DB20E08DF80160002715
:104DC00015E005F1B80030F81700C0F307222146BE
:104DD000601CC4B20DF8012005F1B80010F81720CE
:104DE0002046611CCCB20DF80020781CC7B2102FF1
:104DF000E7DB03E0FE208DF8010000BF00BF9DF857
:104E00000100FE2802D10AB0BDE8F08121466846C3
:104E1000FFF75DFD80464FEA18222046611CCCB2A8
:104E20000DF8002008F0FF022046611CCCB20DF8FE
:104E300000205C222046611CCCB20DF800202146E7
:104E40006846FFF75CFD00BF00BFDCE770B586B0C9
:104E500005467F480078112802DB00207C49087055
:104E600029787C487A4A1278815428785C287CD149
:104E7000774800780D30112190FBF1F201FB120010
:104E80007449085CC52869D100240EE07048007898
:104E90000D302044112190FBF1F201FB12006D490D
:104EA000085C01A90855601CC4B2022CEEDB02218B
:104EB00001A8FFF70CFD014665480078103011226B
:104EC00090FBF2F302FB1300624A125C6048007828
:104ED0000F30112390FBF3F603FB16005D4B185CBB
:104EE00042EA0020814239D1594800780E30112120
:104EF00090FBF1F201FB12001946085C19282DD134
:104F000010215548FFF711FD11215348FFF70DFD02
:104F100012215148FFF709FD13214F48FFF705FD06
:104F200014214D48FFF701FD15214B48FFF7FDFC0B
:104F300016214948FFF7F9FC17214748FFF7F5FC10
:104F400018214548FFF7F1FC202405E0214642489E
:104F5000FFF7EBFC601CC4B2292CF7DB3C4800785F
:104F60000C30112190FBF1F200E072E101FB120024
:104F70003849085CC52859D100240EE0344800782F
:104F80000C302044112190FBF1F201FB1200314959
:104F9000085C01A90855601CC4B2032CEEDB032198
:104FA00001A8FFF794FC014629480078103011222F
:104FB00090FBF2F302FB1300264A125C24480078AF
:104FC0000F30112390FBF3F603FB1600214B185C06
:104FD00042EA0020814229D11D4800780D3011217C
:104FE00090FBF1F201FB12001946085C212802D067
:104FF00022281AD10CE0164800780E30112190FBBF
:10500000F1F201FB12001349085C144908700CE02E
:105010000F4800780E30112190FBF1F201FB1200D5
:105020000C49085C0D49487000BF00BF0848007873
:105030000B30112190FBF1F201FB12000549085CD5
:10504000C5287DD100241AE00000C84200007A443F
:10505000F100002018020020300200200803002088
:10506000F74800780B302044112190FBF1F201FB4E
:105070001200F449085C01A90855601CC4B2042C54
:10508000EEDB042101A8FFF722FC0146EC48007882
:105090001030112290FBF2F302FB1300E94A125C7C
:1050A000E74800780F30112390FBF3F603FB16005E
:1050B000E44B185C42EA002081424CD1E048007881
:1050C0000C30112190FBF1F201FB12001946085C33
:1050D000232802D024283DD11DE0D94800780E3085
:1050E000112190FBF1F201FB1200D649095CD44872
:1050F00000780D30112290FBF2F302FB1300D14A2D
:10510000105C41EA002006B2304603F065FDCE494E
:10511000496808601EE0CA4800780E30112190FBF3
:10512000F1F201FB1200C749095CC54800780D3057
:10513000112290FBF2F302FB1300C24A105C00E064
:1051400009E041EA0026304603F046FDBE49896881
:10515000086000BF00BFBA480078401C112190FBD6
:10516000F1F201FB1200B749085CC52871D1002497
:105170000EE0B3480078401C2044112190FBF1F26E
:1051800001FB1200AF49085C01A90855601CC4B2BC
:105190000E2CEEDB0E2101A8FFF799FB0146A84873
:1051A00000781030112290FBF2F302FB1300A54AA5
:1051B000125CA34800780F30112390FBF3F603FB39
:1051C0001600A04B185C42EA0020814241D19C4865
:1051D0000078801C112190FBF1F201FB12001946AE
:1051E000085C31380A2833D2DFE800F005060708EA
:1051F000090A0B0C0D0E00BF00BF00BF00BF00BFAF
:1052000000BF00BF00BF00BF00241EE08C48007834
:10521000C01C2044112190FBF1F201FB12008949CE
:10522000085C41B286480078801C112290FBF2F3A2
:1052300002FB1300834A105C313800EB40028348C4
:1052400000EB82000155601CC4B20C2CDEDB00BFF9
:1052500000BF7B480078401C7949087006B070BDDB
:1052600010B540F225517A4802F0E4FD70B178485B
:1052700002F060FD774908700846FFF7E7FD00BFC0
:105280008021734802F0C0FD0028F9D010BD70B530
:105290000446D8252946204603F036FA70BD10B5DD
:1052A0006A484038FFF7F3FF10BD2DE9F047044688
:1052B0000D4616466449496808686749096803F05D
:1052C0008DFA814603F0B4FC071E01DB394600E08D
:1052D0007942084603F080FC8046314603F05EFDCB
:1052E00004D25D48006858494968086056484068DB
:1052F000006859490860544840680168204603F036
:1053000043FD02D85048406804604F494968086826
:10531000294603F039FD02D84B4840680560BDE8D6
:10532000F0872DE9F04104460D4616461F46DDF88C
:10533000188045484560A4F1200000EB4001434837
:1053400040F82160A4F1200000EB40013F4800EB51
:1053500081004760A4F1200000EB40013B4800EBD6
:105360008100C0F80880214638484038FFF7DDFA50
:10537000BDE8F08170B504460E4615463348403806
:10538000C460066145611421FFF7CFFA70BD10B506
:1053900004462E48403884601321FFF7C6FA10BD3A
:1053A00010B5044629484038C4631A21FFF7BDFAF6
:1053B00010BD10B50446204603F03AFC00B2234964
:1053C00040394880112121484038FFF7AEFA10BD1E
:1053D00070B504460D461D484038C0E90845162101
:1053E000FFF7A3FA70BD70B505460C461748403864
:1053F0008461C5611521FFF798FA70BD10B50446A8
:105400001248403804701021FFF78FFA10BD10B514
:1054100004460E48403880F834401821FFF785FADA
:1054200010BD70B505460C46681E0849783121F854
:105430001040302105484038FFF777FA70BD000072
:10544000F100002018020020080300207002002054
:1054500000380140F0000020F400002030B5A0F139
:10546000200404EB4405184C54F825400C60A0F1CE
:10547000200404EB4405144C04EB850464681460B8
:10548000A0F1200404EB44050F4C04EB8504A46850
:105490001C6030BD0D480078012813DB0B480078F4
:1054A00003280FDC0A480078401C094908700846A8
:1054B0000078022803DB00200870044908700348C4
:1054C000007870470020FCE77002002008030020ED
:1054D000F800002010B50121102001F055F801213D
:1054E000480201F051F84FF4004000F0B1FF10BD48
:1054F00008B51020ADF8000000208DF803006946C3
:10550000794800F085FD08BD00B585B00020009009
:105510008DF804008DF805004FF460200290002003
:10552000039002208DF81000012001F0E3FA694693
:105530006E4801F022F9072301220E216B4801F089
:10554000B4F9072302221021684801F0AEF90121C5
:10555000664801F03EF9654801F05DF900BF634817
:1055600001F05EF90028FAD1604801F063F900BF4C
:105570005E4801F064F90028FAD101215B4801F08E
:1055800068F905B000BD10B5FFF7A4FFFFF7B0FF45
:10559000FFF7BAFF10BD2DE9F0470024A24607230C
:1055A00001220E21514801F080F9A14612E00121AB
:1055B0004E4801F04EF900BF02214C4801F0BAFA02
:1055C0000028F9D0494801F0D7F9044409F1010055
:1055D00000F0FF09B9F10A0FE9DB0A20B4FBF0F48F
:1055E000204603F018FB0746414A424B03F013FAEA
:1055F000054603F0ADFB404908600846006803F02B
:105600007CFB07463D4A3E4B03F005FA054603F096
:105610009FFB82463B48C0F800A0BDE8F0872DE91B
:10562000F04F85B0002400200490072301221021B0
:105630002E4801F03AF9A14612E001212B4801F071
:1056400008F900BF0221294801F074FA0028F9D0B6
:10565000264801F091F9044409F1010000F0FF0926
:10566000B9F10A0FE9DB0A20B4FBF0F4204603F09D
:10567000D2FA07461E4A1F4B03F0CDF9054603F048
:1056800067FB0490049803F038FB05461E4A1F4B45
:1056900003F0BEF91E4A1F4BCDE9000103F02DFABD
:1056A00000221D4BCDE9020103F00EF907461B4A0B
:1056B0001B4B03F022FA824603F006FB19490870DF
:1056C00005B0BDE8F08F70B5FFF765FF0D480068C5
:1056D00003F013FB0446144A144B03F021FB02D2DF
:1056E00001201349087070BD0010014000240140E2
:1056F000A07BA5A952494A3FFC000020158F8B6A68
:105700001111F93F00010020E17A14AE47E1F63FA4
:1057100022FDF675E09C713F00003940CDCCCCCC29
:10572000CCCCF43F050100209A99999999990940A8
:105730000401002010B50121082000F025FF0121FF
:10574000880400F02EFF0121084600F01DFF10BD67
:1057500008B54FF48060ADF8000003208DF802001A
:1057600018208DF8030069465A4800F051FC4FF4A8
:105770000060ADF8000004208DF80300694655482C
:1057800000F046FC08BD1FB54FF4E130009000204A
:10579000ADF80400ADF80600ADF80800ADF80C0057
:1057A0000C20ADF80A0069464B4802F0C6F9012208
:1057B00040F22551484802F058FA0121464802F0CB
:1057C00048FA4021444802F02CFB1FBD08B54FF4B5
:1057D000A06000F03DFF27208DF8000000208DF82C
:1057E00001008DF8020001208DF80300684600F0EA
:1057F00034FF08BD10B5FFF79DFFFFF7A9FFFFF7C6
:10580000C2FFFFF7E3FF10BD10B540F2255132484B
:1058100002F010FB10B30120304908702E4802F04E
:1058200089FA2F490870084600782E492E4A1278C6
:1058300088542D480078401C2B4908700846007891
:10584000072804DD0020087001202849087000BFE7
:105850008021214802F0D8FA0028F9D010BD10B5F7
:1058600004460BE021781C4802F060FA00BF80215A
:10587000194802F0C9FA0028F9D0641C20780028E1
:10588000F0D110BD00201EE01649095CFF2918D197
:10589000144A811C525C134B411C595C11441A463A
:1058A000125C1144CAB2C11C595C8A4209D11A4621
:1058B000411C515C0E4A11701A46811C515C0D4A04
:1058C0001170411CC8B20828DEDB0021064A1170A5
:1058D00070470000000C0140004800400701002014
:1058E000080100200B010020090100200A0100200E
:1058F000130100201401002010B50121202000F028
:1059000043FE0121480400F04CFE0121084600F04E
:105910003BFE10BD08B50121082000F04AFC202004
:10592000ADF8000003208DF8020018208DF8030068
:105930006946D84800F06CFB4020ADF80000042018
:105940008DF803006946D34800F062FB08BD1FB51F
:105950004FF4165000900020ADF80400ADF806009A
:10596000ADF80800ADF80C000C20ADF80A0069464F
:10597000C94802F0E2F8012240F22551C64802F07F
:1059800074F90121C44802F064F94021C24802F0D0
:1059900048FA1FBD08B54FF4A06000F059FE26205C
:1059A0008DF8000002208DF8010000208DF8020023
:1059B00001208DF80300684600F04FFE08BD10B5C9
:1059C000FFF79AFFFFF7A6FFFFF7C1FFFFF7E2FF20
:1059D00010BD10B5002440F22551AF4802F02AFA5C
:1059E00070B1AD4802F0A6F9C4B22146AA4802F04F
:1059F0009DF900BF8021A84802F006FA0028F9D0DE
:105A000010BD70B50446002584F035057E21A248FE
:105A100002F08CF900BF80219F4802F0F5F90028C0
:105A2000F9D004219C4802F081F900BF80219A48F6
:105A300002F0EAF90028F9D03121974802F076F90E
:105A400000BF8021944802F0DFF90028F9D02146F8
:105A5000914802F06BF900BF80218F4802F0D4F921
:105A60000028F9D029468C4802F060F900BF802157
:105A7000894802F0C9F90028F9D0EF21864802F0E0
:105A800055F900BF8021844802F0BEF90028F9D002
:105A900070BD70B50446002584F044057E217E4823
:105AA00002F044F900BF80217B4802F0ADF90028E4
:105AB000F9D00521784802F039F900BF80217648F5
:105AC00002F0A2F90028F9D04121734802F02EF922
:105AD00000BF8021704802F097F90028F9D000211A
