:020000040800F2
:10000000005B0020254D0008ED010008EF0100080D
:10001000F1010008F3010008F501000800000000EC
:100020000000000000000000000000004501000882
:10003000F701000800000000890100084D4C00088D
:100040003F4D00083F4D00083F4D00083F4D000860
:100050003F4D00083F4D00083F4D00083F4D000850
:100060003F4D00083F4D0008BB0700083F4D00080A
:100070003F4D00083F4D00083F4D00083F4D000830
:100080003F4D00083F4D00083F4D00083F4D000820
:100090003F4D00083F4D00083F4D00083F4D000810
:1000A0003F4D00083F4D00083F4D00083F4D000800
:1000B000EF0800083F4D00083F4D00083F4D000885
:1000C0003F4D00083F4D00083F4D00083F4D0008E0
:1000D0003F4D00087D420008E1460008534A0008F1
:1000E0003F4D00083F4D00083F4D00083F4D0008C0
:1000F0003F4D00083F4D00083F4D00083F4D0008B0
:100100003F4D00083F4D00083F4D00083F4D00089F
:100110003F4D00083F4D00083F4D000823090008EF
:100120003F4D00083F4D00083F4D00083F4D00087F
:10013000DFF80CD009F070FD00480047DB01000833
:10014000005B0020224B19680868B0E8F00F80F3CC
:100150000988BFF36F8F4FF0000080F311884EF0D5
:100160000D0E70470000000006480068006880F32C
:10017000088862B661B6BFF34F8FBFF36F8F00DFA1
:1001800000BF00BF08ED00E0EFF30980BFF36F8F01
:100190000F4B1A6820E9F00F106008B54FF05000BF
:1001A00080F31188BFF34F8FBFF36F8F07F0B0FC60
:1001B0004FF0000080F31188BDE808401968086816
:1001C000B0E8F00F80F30988BFF36F8F704700BF6E
:1001D00058010020EFF30580704710B500F01FF9BB
:1001E00000F075F900F057FA002010BD7047FEE7E7
:1001F000FEE7FEE7FEE770470CB500224C48009290
:100200000192016841F4803101604FF4A0630168FC
:1002100001F4003101910099491C0091019911B933
:1002200000999942F3D10168890333D501210191E5
:1002300040490A6842F010020A600A6822F003028C
:100240000A600A6842F002020A604168416041683F
:100250004160416841F480614160416821F47C1152
:100260004160416841F4E8114160016841F08071EA
:10027000016001688901FCD5416821F003014160FA
:10028000416841F0020141604168C1F381010229E6
:10029000FAD10CBD01920CBD254810B5016841F0A2
:1002A000010101604168244A114041600168234A0C
:1002B00011400160016821F480210160416821F44E
:1002C000FE0141604FF41F018160FFF795FF1C495B
:1002D0004FF00060086010BD154A10B55068194B0A
:1002E00010F00C01184803D0042901D0082901D0CE
:1002F000036012E05168536801F470114FF002047A
:1003000013F4803F04EB914102D053689B0301D565
:100310000E4B00E00B4B5943016051680A4AC1F390
:100320000311121D515C0268CA40026010BD00003A
:1003300000100240002002400000FFF8FFFFF6FE20
:1003400008ED00E000127A000000002000093D00E6
:100350000121042004F08FBF38B52020ADF8000043
:1003600010208DF803000320084C8DF80200694628
:10037000204604F098FD2021204604F0FEFD38BD03
:1003800010B5FFF7E5FFBDE81040E5E700080140C4
:1003900003E00A21491E89B2FCD2401E80B2F8D285
:1003A000704742F6E06303E01946491E89B2FCD269
:1003B000401E80B2F8D27047F8B501215F4804F0C2
:1003C000FDFD0121042004F056FF0121082004F066
:1003D00052FF0121084604F04EFF4FF40040ADF8F3
:1003E000000003208DF8020010248DF803406946B8
:1003F000534804F058FD0820ADF80000514E482540
:100400008DF803506946304604F04DFDADF80040CC
:100410008DF803506946304604F045FDF8BD10B52F
:10042000FFF73AFF4FF4407004F08EFCFFF7C4FF73
:1004300004F016FC04F003FB04F048F9C820FFF7B1
:10044000B0FF08213E4804F098FD04F06AFB3E4CE2
:1004500010F1020F606001D2002808DA00203B4949
:1004600060600320087004F094F904F0E2F9606819
:1004700003282BDA401C606004F040FB34A004F039
:100480000AFB4FF47A74204604F020FC33A004F0F9
:1004900002FB204604F01AFC35A004F0FCFA2046CA
:1004A00004F014FC35A004F0F6FA204604F00EFC2B
:1004B00038A004F0F0FA204604F008FC38A004F05C
:1004C000EAFA2046BDE8104004F000BC10BD70B54B
:1004D00003F069FBFFF754FF00F065F902F04DFFF0
:1004E00003F003FA03F026FA03F0E3FE03F0E6FF5D
:1004F0001E2004F00CF9642004F0E8FB00F092FAEE
:1005000001F06FFF104D114C0126287005E03046B8
:10051000267004F03EF904F08CF928780028F6D112
:100520000220207004F035F904F083F900F0D7F9C7
:1005300000F090F9BDE8704004F00ABB0002300002
:1005400000080140000C0140140000202801002098
:1005500041542B434E30310D0A00000041542B42D0
:1005600044536D6172742D4361720D0A00000000E6
:1005700041542B435230300D0A00000041542B42AD
:100580004D536D6172742D4361722D446174610D20
:100590000A00000041542B434130300D0A00000096
:1005A00041542B435A0D0A004FF47A74204607F049
:1005B000E3F9FBE70A2007F0DFF9FBE70A2007F081
:1005C000DBF9FBE70A2007F0D7F9FBE704F0F1FAC3
:1005D0000A2007F0D1F9F9E7374CD4F89401C04369
:1005E000C4F8940104F0B5FA03F070FFC82007F0D6
:1005F000C3F9F2E77CB508F0C9FC30480224CDE924
:1006000000404FF4FA76002332462DA1AFF23700B6
:1006100006F0F0FF29480325001DCDE90050002316
:1006200032462AA1AFF25B0006F0E4FF23483246CF
:100630000830CDE90050002326A1AFF2770006F084
:10064000D9FF1E4832460C30CDE90050002324A1CA
:10065000AFF2970006F0CEFF184800231030CDE926
:100660000040322221A1AFF2B30006F0C3FF1348CD
:1006700000231430CDE9004032221FA1AFF2D70091
:1006800006F0B8FF0D48001F006806F0DEFFBDE869
:100690007C4008F095BC1CB508490120091F0023C7
:1006A000CDE90001322218A1AFF2B70006F0A2FF97
:1006B000BDE81C4007F05CBB000021422000002088
:1006C0006C65645F7461736B0000000075695F7432
:1006D00061736B0073706565645F7461736B0000B8
:1006E0006D6F746F5F7461736B0000006170695FA0
:1006F0007461736B0000000061706974696D655FFF
:100700007461736B0000000073746172745F7461D4
:10071000736B00000121042004F0ADBD38B5082042
:10072000ADF8000010248DF8034003202C4D8DF807
:1007300002006946284604F0B6FBADF800404821A7
:100740008DF803106946284604F0ADFB38BD1CB592
:10075000102004F0DFFF0421002004F058FC1020DA
:10076000009000208DF804000C208DF80500012079
:100770008DF80600684604F06FFF1CBD08B54FF405
:10078000407004F0E1FA0A208DF8000005208DF891
:10079000010000208DF8020001208DF8030068465A
:1007A00004F0D7FA08BD10B5FFF7B4FFFFF7B6FFA6
:1007B000FFF7CDFFBDE81040E0E710B5142004F0CE
:1007C0009EFA074C1021204604F0C3FB18B90821FB
:1007D000204604F0D4FBBDE81040102004F09ABF7E
:1007E0000008014008B54FF4407004F0ADFA37201E
:1007F0008DF8000004208DF8010000208DF8020023
:1008000001208DF80300684604F0A3FA08BD3EB548
:100810004A4C0121204605F0FAFC2421ADF80410D1
:100820001420ADF800000021ADF80610ADF802105C
:100830006946204605F00EF801221146204605F0D3
:10084000C6FA0121204605F0ADFA3EBD0121202067
:1008500004F01ABD10B5FFF7F9FFFFF7D8FFBDE8A8
:100860001040BFE7364800228260C260F2E70121F3
:10087000084604F009BD3EB501218C07204605F06D
:10088000C6FC40F60F61ADF804101320ADF800006F
:100890000021ADF80610ADF802106946204604F0BC
:1008A000D9FF01221146204605F091FA0121204688
:1008B00005F078FA3EBD08B54FF4407004F044FAF4
:1008C0001C208DF8000001208DF8010000218DF81A
:1008D00002108DF80300684604F03BFA08BD10B51D
:1008E000FFF7C5FFFFF7C7FFBDE81040E3E710B50E
:1008F000134C2088401C208002F068FD20880528C9
:1009000007D300202080012002F070FD022002F0B9
:100910006DFD02F0DBFE0121BDE81040880705F007
:1009200076BC07488168C268491C42F100028160B8
:10093000C2600121014805F06ABC000000140040BB
:100940003800002070B50C46054600F07AF9D0203A
:1009500000F004FA00F0A9F950B9284600F0FEF9B9
:1009600000F0A3F9204600F0F9F900F09EF918B163
:1009700000F081F9012070BD00F07DF9002070BD0C
:10098000BC2801D3012110E0622801D302210CE030
:100990002A2801D3032108E0142801D3042104E00C
:1009A0000A2801D3052100E006211A20CAE710B564
:1009B00004464FF47A70844201D9044602E0042CC4
:1009C00000D20424B0FBF4F0401EC1B21920FFF79E
:1009D000B9FF6008BDE81040D2E710B5044600F04A
:1009E00030F9D02000F0BAF900F05FF9204600F0AD
:1009F000B5F900F05AF900F024F9D12000F0AEF971
:100A000000F053F9002000F0CCF9044600F033F96F
:100A1000204610BDC006010E1C2093E7C006010E43
:100A20001B208FE710B500F0F3F880216B20FFF753
:100A300089FF642004F04AF900216B20FFF782FF50
:100A40000320FFF7EBFF0020FFF7E4FF3220FFF762
:100A5000AEFF00213820FFF775FF00216A20FFF765
:100A600071FF00212320FFF76DFF80213720FFF762
:100A700069FF7520FFF7B1FF682801D0012010BD84
:100A800001216B20FFF75EFF00216C20FFF75AFF6A
:100A9000C820FFF78CFF002010BD2DE9F0411C4657
:100AA00015460F46064600F0CCF87006000E00F022
:100AB00055F900F0FAF820B100F0DDF80120BDE8AA
:100AC000F081384600F04AF900F0EFF800F0B9F88C
:100AD000012000EB4600C0B200F040F900F0E5F85C
:100AE00008E0012D0CD0012000F05BF96D1E04F828
:100AF000010BEDB2002DF4D100F0BDF80020DEE7CF
:100B00000020F1E708B56B46022241216820FFF77B
:100B1000C4FFBDF8000040BA00B208F0A9FE0022F0
:100B2000344B08F028FE344A344B08F00BFD08F033
:100B300035FF334908F08AFC08F0B8FE00B208BD62
:100B40007CB514460D4606466B46062243216820B6
:100B5000FFF7A3FF00280BD1BDF8001049BA318080
:100B6000BDF8021049BA2980BDF8041049BA2180A5
:100B70007CBD7CB514460D4606466B4606223B21DD
:100B80006820FFF78AFF00280BD1BDF8001049BA92
:100B90003180BDF8021049BA2980BDF8041049BA65
:100BA00021807CBD2DE9F0411D4616460C460746C6
:100BB00000F047F87806000E00F0D0F800F075F865
:100BC00060B9204600F0CAF800F06FF800240BE08E
:100BD000285D00F0C3F800F068F818B100F04BF899
:100BE00001206CE7641CE4B2B442F1D300F043F896
:100BF000002064E700407540A4703D0AD74342409E
:100C00000000C8420020401C10F0FF00FBD07047DD
:100C100038B50121102004F02EFB4FF44074ADF8DC
:100C2000004010208DF803000320734D8DF8020062
:100C30006946284604F037F92146284604F09DF914
:100C400038BD6D4800B5416821F0F0014160416850
:100C500041F03001416069490120C1F8A401C1F8A7
:100C6000A00101F5D071FFF7CDFF00224A60FFF728
:100C7000C9FF0A6000BD604800B5416821F0F0017D
:100C80004160416841F0300141605C490020C1F899
:100C9000A001C1F8A40101F5D071FFF7B3FF012055
:100CA000086048605DF804EBACE7534800B5426863
:100CB000002122F0F0024260426842F0800242606D
:100CC0004E4A0123C2F8A431FFF79CFFC2F8A031BD
:100CD000FFF798FF07E0491CC9B2FA2903D9FFF7CB
:100CE000CAFF012000BDD2F824010028F3D1C2F8C8
:100CF000A00100BD414900B50022C1F8A0213E4835
:100D0000436823F0F0034360436843F030034360DB
:100D1000C1F8A42101F5D071FFF774FF012008602C
:100D2000FFF770FF0A6000BD344900B50022C1F82A
:100D3000A0213148436823F0F0034360436843F047
:100D4000300343600123C1F8A43101F5D071FFF7EE
:100D500059FF0B60FFF756FF0A6000BD024630B531
:100D60002548416821F0F0014160416841F03001BF
:100D70004160224B0025C3F8A05129460124D00927
:100D8000C3F8A4015006020EC3F8A041FFF73AFFD2
:100D9000C3F8A051FFF736FF491CC9B20829EED3AA
:100DA00030BD70B5064614480024416821F0F001BA
:100DB0004160416841F080014160104A214623466C
:100DC0000125C2F8A031FFF71DFFC2F8A05160064F
:100DD000040ED2F8240108B1641CE4B2FFF712FF3C
:100DE000491CC9B20829ECD31EB1FFF783FF204686
:100DF00070BDFFF799FFFAE70010014000002242A2
:100E0000F8B5FE4C0023224694F82460D2E9001283
:100E10005D1E56B190B102200DE01078C97B6B4683
:100E20000122FFF7BFFE60B90DE0A67A4EB128B1EE
:100E3000607C58B901208DF80000EEE78DF8003095
:100E4000EBE72846F8BD9DF8000060740020F8BD6F
:100E500038B50024E94D18E02868C27AA24212D0C1
:100E6000407DA0420FD008786B4601222146FFF753
:100E700014FE10B14FF0FF3038BD9DF80020214620
:100E8000DFA008F057FF641CE4B269680879A0424B
:100E9000E2D8002038BDD94A30B40B4611684FF073
:100EA000FF34CD7A854206D0497D814203D0516816
:100EB0000A79824202D8204630BC70470C7801463D
:100EC000204630BC0122FFF7E8BD38B5CB4D0446C3
:100ED00095F82300A04201D1002038BD0CB130208C
:100EE00000E000208DF80000A87C28B19DF80000EB
:100EF00040F002008DF8000095F8220028B19DF81E
:100F0000000040F080008DF8000028686B46012248
:100F1000017D68680078FFF745FE10B14FF0FF30A3
:100F200038BD85F82340D7E7F8B5044610F0700FB8
:100F30004FF0000601D0012004E014B18DF80060EC
:100F400002E040208DF80000AC4D6B46012228687D
:100F5000817C68680078FFF725FE4FF0FF3760BBA3
:100F60009DF8000020F0400028738DF800606006B6
:100F700002D404208DF80000A00605D49DF80000DE
:100F800040F002008DF80000E00605D49DF8000056
:100F900040F001008DF80000200705D49DF8000006
:100FA00040F038008DF8000028686B460122C17CB3
:100FB00068680078FFF7F6FD10B1AE723846F8BDEC
:100FC00024B1082C02D00020FFF77FFFAC722E75F1
:100FD000322003F07BFE0020F8BDF8B5874D0446B3
:100FE000A87CA04201D10020F8BD84484FF0FF3614
:100FF0006B46D0E900104FF001020979007834B354
:10100000FFF74BFDD8BB9DF800006B4620F0200099
:101010008DF8000028680122017968680078FFF7E0
:10102000C1FD60BB032003F051FE02208DF80000DB
:1010300095F8220070B382202AE028686B460122CE
:10104000017D68680078FFF7ADFDC0B92DE0FFF7BE
:1010500024FDA0B9A87AC0079DF8000002D040F096
:10106000200001E020F020008DF8000028686B4689
:101070000122017968680078FFF794FD08B13046D5
:10108000F8BD032003F022FE95F8220000B1802075
:101090008DF8000095F823000028CED09DF80000C0
:1010A00040F030008DF80000C7E7AC749BE7F8B55E
:1010B000524D4FF0FF36A87A00287CD000248DF8DE
:1010C000004028686B460122C17B68680078FFF702
:1010D00069FD00286FD128686B4601224179686854
:1010E0000078FFF75FFD002865D128686B46012274
:1010F000017968680078FFF755FD00285BD195F805
:101100002400E0B30C208DF8000028686B46012213
:10111000017968680078FFF745FD00287DD132200D
:1011200003F0D4FDC0208DF80000A87AC00702D0DB
:10113000E0208DF8000028686B460122017968687C
:101140000078FFF72FFD002867D1687C18B10220D6
:101150008DF8000001E08DF8004028686B46012200
:10116000C17B68680078FFF71DFD20BB8DF800404B
:1011700028686B4601224179686800783DE0FFE706
:1011800004208DF8000028686B4601220179686808
:101190000078FFF707FD70B9A87C88B9A87AC00766
:1011A0000ED060208DF8000028686B46012201797E
:1011B0006868007800E02BE0FFF7F4FC40BB01E03A
:1011C0004020EFE7322003F081FD687C18B1012058
:1011D0008DF8000001E08DF8004028686B46012280
:1011E000C17B68680078FFF7DDFC88B92868034B8D
:1011F000417968681033012200780AE04800002035
:10120000252335783A20252335780D0A0000000083
:1012100003E0FFF7C7FC002800D03046F8BD2DE9F9
:10122000F041002620F00104FE4D95F8240010B195
:101230000020BDE8F081A87A4FF0FF3838B1204097
:101240002F7C2874A04200D0464624B901E04046D5
:10125000EFE7287D40B10120FFF7D2FD3CB1FFF759
:1012600026FF20B12F74F2E70020FFF7C9FD3046BA
:10127000DFE738B5EB4C4FF0FF35A17A31B3BC282E
:1012800001D3012010E0622801D302200CE02A28BB
:1012900001D3032008E0142801D3042004E00A2825
:1012A00001D3052000E006208DF80000E07A9DF8CB
:1012B0000010884201D1002038BD20686B46012211
:1012C000817860680078FFF76DFC08B1284638BD6A
:1012D0009DF80000E072EEE72DE9F84304464FF078
:1012E000FF39282844D80727CE4D00267CB101209D
:1012F000FFF7EBFD20208DF800004FF00108012CD6
:1013000017D0052C18D88DF8018005201FE000208B
:10131000FFF7DBFD8DF800608DF8017028686B46E3
:101320000222817C68680078FFF73CFC00BB2E75C8
:1013300029E08DF80160E8E7142C04D802208DF82C
:1013400001000A2003E003208DF801001420FFF7BC
:1013500090FF9DF801006B4607EB80108DF80100AF
:1013600028680222817C68680078FFF71BFC10B1B6
:101370004846BDE8F8830820A8722E7385F81480CB
:101380000020FFF74CFF0020F3E7F8B5A54D044619
:101390004FF0FF37A87A28B395F8240010BB287DBA
:1013A00048B12CB1282C03D8E0B2FFF795FF24E018
:1013B0000020FFF791FF4FF47A76042C01D2042429
:1013C00002E0B44200D93446B6FBF4F0401E8DF87A
:1013D000000028686B460122417868680078FFF7B2
:1013E000E1FB08B13846F8BD9DF80000401CB6FB93
:1013F000F0F0E8814008FFF73CFF0020F8BD38B569
:10140000884C4FF0FF35A17A19B3022806D0042882
:1014100006D008280ED010281BD10DE0002000E0D7
:1014200008208DF80000607A9DF80010B0EBD10F15
:1014300004D005E01020F4E71820F2E7002038BDC2
:1014400020686B460122C17960680078FFF7AAFB2B
:1014500008B1284638BD9DF80000C0086072EDE76D
:1014600038B5704C4FF0FF35A17A31B3FA2809D066
:10147000B0F5FA7F08D0B0F57A7F0FD0B0F5FA6FEB
:101480001BD10DE0002000E008208DF80000207A3C
:101490009DF80010B0EBD10F04D005E01020F4E768
:1014A0001820F2E7002038BD20686B4601228179C0
:1014B00060680078FFF776FB08B1284638BD9DF8D4
:1014C0000000C0082072EDE72DE9FC41554C80205A
:1014D0008DF8000020686B460122817C60680078EE
:1014E000FFF760FB4FF0FF37002832D1642003F094
:1014F000EDFB00258DF8005020686B460122817CB1
:1015000060680078FFF74EFB002870D120686B46BA
:101510000622817D60680078FFF7BFFA002866D157
:101520009DF805009DF80310C007400F01F0010170
:1015300040EA41019DF801004FF0010600F0010072
:10154000014309D0012905D0022915D036A008F0A1
:10155000F1FB4CE0E67410E020686B460122C17894
:1015600060680078FFF799FA40BB9DF8000010F022
:101570000F0020D0042822D0E574FF2004F80A0FC1
:101580004FF6FF7104F8020C04F8010C6070A180A2
:10159000A0712072A67026766576E572A572E56068
:1015A00025616561A576E576A5834FF4FA60FFF7BE
:1015B00057FF18B907E0264808F0BCFB17E025A044
:1015C00008F0B8FBC6E70220FFF719FF78B92A2018
:1015D000FFF74FFE58B93220FFF7D7FE38B9002089
:1015E000FFF71DFE18B90020FFF7F7FC10B13846D1
:1015F000BDE8FC810020FFF797FC0020F8E770476A
:101600007CB5044607484FF0FF35817A11F0700F22
:1016100031D0016840686B46097B00780622FFF7ED
:101620003CFA27E048000020556E737570706F72A9
:1016300074656420736F6674776172652070726F71
:1016400064756374207265762025642E0A0000009C
:10165000B8B8000848616C662073656E7369746978
:1016600076697479207061727420666F756E642E6D
:101670000A00000008B128467CBDBDF8000040BA51
:101680002080BDF8020040BA6080BDF8040040BA76
:10169000A08000207CBD7CB50446FE484FF0FF359D
:1016A000817A090708D5016840686B46497B007854
:1016B0000622FFF7F2F908B128467CBDBDF800000C
:1016C00040BA2080BDF8020040BA6080BDF8040036
:1016D00040BAA08000207CBDF8B5EE4C07464FF024
:1016E000FF35A07A40B120686B460222817B60689A
:1016F0000078FFF7D2F908B12846F8BDBDF8000020
:10170000646840BA05B2E08808F0ADF80646B4F95E
:10171000080008F09FF80446284608F09BF8214688
:1017200007F08EFE314607F0C3FEDB4907F036FEB8
:10173000102107F0FBFE08F0B9F838600020F8BD72
:101740002DE9FC4104004FF0FF3862D0206820B939
:10175000606810B9A06800285CD0CE4F03226B46A9
:10176000786811460078FFF798F9E0BB9DF8001003
:10177000082000EB111101F00F029DF801109DF8F7
:10178000023000EB111100EB1310236840325B00B4
:1017900093FBF2F216B2626801F00F015200403181
:1017A00092FBF1F10DB2A16800F00F00490040304A
:1017B00091FBF0F004B2786806226B46007811467F
:1017C000FFF76BF978B9BDF80000BDF8021040BA18
:1017D000BDF80420304449BA52BA030A29442244CD
:1017E0008DF8003000E014E08DF80100080A8DF853
:1017F0000200100A8DF804008DF803108DF8052002
:10180000786806226B4600781146FFF7CBF900286E
:1018100000D04046ECE69F49097A39B1012907D04A
:1018200002290AD003290BD0002103E0FA2101E0AC
:101830004FF4FA710180002070474FF47A71F9E794
:101840004FF4FA61F6E7934A517A41B1012908D081
:1018500002290FD003290FD04FF0FF30704702212B
:1018600000E004210170D17C11B1017849000170C0
:10187000002070470821F5E71021F3E78549C97A70
:10188000072913D2DFE801F01204060A0C0E10003B
:10189000BC2100E062210180002070472A21FAE784
:1018A0001421F8E70A21F6E70521F4E70021F2E721
:1018B000784991F8242012B14FF0FF307047C98960
:1018C00001800020704700210180481E70474FF0C2
:1018D000FF3070476F49097A41B1012908D00229C8
:1018E0000AD003290AD04FF0FF3070476B4900E05F
:1018F0006B490160002070476A49FAE76A49F8E7D6
:10190000644A517A41B1012909D0022911D0032931
:1019100012D04FF0FF3070474FF4804101E041F6A4
:101920009C710180D17C11B101884908018000209F
:1019300070474FF48051F4E74FF40061F1E75549E7
:10194000097C0170002070475249897A01B1012158
:1019500001700020704738B505464E484FF0FF34FF
:10196000817A41B1016840686B46097C00780222A7
:10197000FFF793F808B1204638BDBDF8000040BA23
:101980002880002038BD2DE9FE4F88464149814618
:10199000002491F824001E4625464FF0FF3BD0BBA3
:1019A00000203070887AB0B3087CA0B3420600D51E
:1019B0000224820600D5A41CC20600D5A41C000780
:1019C00000D5A41D8A460968DAF804006B46897AB6
:1019D00000780222FFF761F8E8B9BDF8000047BAC5
:1019E000A74263D3DAF804004188B7EB510F13D94B
:1019F000DAF8001000786B46497C0122FFF74DF8B9
:101A000048B99DF80000C00606D5FFF750FB6FF0FF
:101A10000100BDE8FE8F0AE0DAF80010DAF80400F1
:101A20006B46C97A00782246FFF737F808B1584666
:101A3000EFE7B7FBF4F00C99401E087000203070FF
:101A4000A4B39AF8101050460A07694613D5BDF89A
:101A50000020062552BAA8F80020BDF8022052BA8C
:101A6000A8F80220BDF8042052BAA8F80420327861
:101A700042F008023270A5421AD0027C520617D5F5
:101A80004A19128852BAA9F80020327842F040026E
:101A900032700CE04800002000000C4200000343BC
:101AA0000000834233330342333383411EE0AD1CD5
:101AB000A5420CD0027C920609D54A19AD1C1288A9
:101AC00052BAA9F80220327842F020023270A542C0
:101AD0000CD09AF81000C00608D54819008840BA02
:101AE000A9F80400307840F010003070002090E732
:101AF0002DE9F843FA4E0546174696F82400894624
:101B00004FF0FF3888B3B07A78B330686B46022262
:101B1000817A70680078FEF7C0FF30BBBDF8000026
:101B200044BAAC4202D2002038701EE0706841888E
:101B3000B4EB510F10D9316800786B46497C012213
:101B4000FEF7ABFF88B99DF80000C00604D5FFF78B
:101B5000AEFA6FF001000CE43068EAB24B46C17A8D
:101B600070680078FEF799FF08B140460CE4B4FBBA
:101B7000F5F0401E3870002006E4D94981F82200B3
:101B8000002070472DE9FE4F05460120D44E8DF808
:101B900000004FF000088DF8018030680C461746B1
:101BA000817C70686B4602220078FEF7FBFF4FF0E5
:101BB000FF3A00287AD1C82003F088F88DF8008019
:101BC00030686B460122C17B70680078FEF7EAFF3F
:101BD0000028EFD130686B460122417970680078A7
:101BE000FEF7E0FF0028E5D130686B460122817CDA
:101BF00070680078FEF7D6FF0028DBD130686B46AE
:101C00000122C17D70680078FEF7CCFF0028D1D199
:101C100030686B460122017970680078FEF7C2FFD8
:101C20000028C7D14FF00C098DF8009030686B4642
:101C30000122017970680078FEF7B4FF002835D1E1
:101C40000F2003F043F8B06A6B460122407A8DF80A
:101C500000003068817870680078FEF7A3FF0028E4
:101C600024D1B06A6B460122007A8DF800003068FA
:101C7000417870680078FEF795FF002873D1B06A4C
:101C8000807A0FB140F0E0008DF8000030686B46BC
:101C90000122817970680078FEF784FF002862D104
:101CA0002FB1B06AC07A40F0E00001E04AE01820AD
:101CB0008DF8000030686B460122C17970680078A9
:101CC000FEF770FFF0BB17B1C82002F0FFFF402005
:101CD0008DF8000030686B46012201797068007849
:101CE000FEF760FF70BB78208DF8000030686B460F
:101CF0000122417970680078FEF754FF10BB322052
:101D000002F0E4FF8DF80080306847466B46417969
:101D1000706801220078FEF745FF98B93168706855
:101D2000B046897A00786B460222FEF7B6FE48B9C3
:101D3000BDF80000AF6040BAB0FBF9F06F60C6B20A
:101D40002F6000E00FE0A76067602760002738E0A1
:101D5000D8F80010D8F804006B46C97A00780C2235
:101D6000FEF79BFE08B1504653E6BDF8000023681D
:101D700040BA02B2BDF802001A4440BA01B2BDF83E
:101D800004002260626840BA11446160A16800B238
:101D90000844A060BDF806002B6840BA02B2BDF846
:101DA00008001A4440BA01B2BDF80A002A606A6805
:101DB00040BA11446960A96800B208447F1CFFB2B0
:101DC000A860B742C4D328688322C117090441EA36
:101DD00010410004002307F06FFA3246002307F099
:101DE0006BFA286068688322C117090441EA104130
:101DF0000004002307F060FA3246002307F05CFA83
:101E00006860A8688322C117090441EA10410004F0
:101E1000002307F051FA3246002307F04DFAA8607C
:101E200020684FF40065C117090441EA104100041D
:101E30002A46002307F040FA3246002307F03CFA16
:101E4000206060682A46C117090441EA1041000475
:101E5000002307F031FA3246002307F02DFA6060C4
:101E6000A0682A46C117090441EA10410004002372
:101E700007F022FA3246002307F01EFAA06000287D
:101E800002DDA0F5803001E000F58030A060002088
:101E9000BFE538B5124C94F8241081421DD00025BE
:101EA000E8B194F82500E8B10020FEF7A9FF002072
:101EB000FFF793F8E08CFFF768FA8DF80050606840
:101EC0006B46012200782321FEF76CFE012084F886
:101ED0002400FEF795FFFFF7EAF8002038BD04E084
:101EE000480000204FF0FF30F8E70020FEF788FFA1
:101EF000207C8DF8000060686B4601220078232169
:101F0000FEF750FE84F82450E5E72DE9F047F94E3E
:101F100082468AB096F824000F4620B10020FFF7D1
:101F2000B8FF012500E0002507A8FFF774FC06A80C
:101F3000FFF789FC09A8FFF7A1FC08A8FFF7B8FC88
:101F400096F80A9096F810800024002239465046F0
:101F5000FFF718FE10B1641C022CF6DB022C1AD01D
:101F60000024012203A96846FFF70CFE10B1641C8F
:101F7000022CF6DB022C0ED003A9384600F046FBFB
:101F8000C7B26946504600F078FB10F0FF0F4FF0E3
:101F9000000402D002E0002403E001240FB944F061
:101FA0000204FF2030727072F0724FF6FF71F181FF
:101FB000B072307401203073BDF81C00FFF750FA86
:101FC0009DF81800FFF71BFABDF82400FFF751F940
:101FD000BDF82000FFF7D9F94846FEF7A5FF4046B7
:101FE000FFF71DF915B10120FFF753FF0AB0204696
:101FF000BDE8F087F8B517000D464FF0FF341FD04D
:10200000BC4EB17AE1B1010A8DF80010C0B28DF872
:102010000100411970684289914211D831680078F5
:102020006B46097E0222FEF7BDFD48B93068EAB270
:102030003B46417D70680078FEF7B4FD002800D073
:102040002046F8BDF8B517000D464FF0FF341FD0FD
:10205000A84EB17AE1B1010A8DF80010C0B28DF836
:102060000100411970684289914211D831680078A5
:102070006B46097E0222FEF795FD48B93068EAB248
:102080003B46417D70680078FEF707FD002800D0D0
:102090002046F8BD2DE9FF4FDFF858A2054685B070
:1020A0009AF82500914688464FF0FF3BC0BBB8F137
:1020B000000F35D000241FE0281B102800DD102061
:1020C00086B208EB04073A4631462046FFF792FFF6
:1020D00030BB6A4631462046FFF7B4FF00BB3846A6
:1020E0003246694607F044F920B16FF0010009B0AB
:1020F000BDE8F08FA01984B2AC42DDD34FEA1920BD
:102100008DF810008DF81190DAF80000544604ABF9
:10211000817EDAF8040002220078FEF743FD08B160
:102120005846E4E7012084F825000898E084002060
:10213000DDE7704991F824100170002070474FF0DE
:10214000FF3070474FF0FF3070474FF0FF3070475F
:102150002DE9F84F674C0F4604F1160115004FF0BA
:10216000FF3B8A464FF000094FF0010877D0B0F5E9
:10217000FF5F01D9FF2605E0202801D2012601E0FA
:10218000C0F3471607B90127282D6AD8607DF0B93A
:1021900094F8240028B10020FFF77BFE84F820800B
:1021A00001E084F820905046FFF735FB5148183085
:1021B000FFF749FB4F481A30FFF760FB4D481C30D2
:1021C000FFF776FBA07AA0774A48217CC1770020F0
:1021D000FEF716FE0020FFF77FF88DF800902068CC
:1021E0006B460122817860680078FEF7DBFC0028EE
:1021F00037D140208DF8000020686B460122C17B5A
:1022000060680078FEF7CEFC50BB8DF800608DF85A
:10221000017020686B460222017A60680078FEF740
:10222000C1FCE8B9052002F051FD607A072606EBF3
:10223000C0008DF8000020686B460122C1796068FB
:102240000078FEF7AFFC58B920208DF80000012D72
:1022500008D0052D0AD840468DF801800DE01DE01C
:102260001FE04CE048468DF8019006E0142D01D89F
:10227000022000E003208DF80100C0B206EB8010C0
:102280008DF8010020686B460222817C606800782E
:10229000FEF788FC28B984F8158027E000200A5C46
:1022A0003AB3FF2020726072E0724FF6FF71E18155
:1022B000A072207484F80C80A07FFEF735FEE08ABF
:1022C000FFF7CEF8207EFFF79AF8608BFEF7D1FF7C
:1022D000A08BFFF75AF8E07FFEF7A1FF94F82000EB
:1022E00010B10120FFF7D5FD84F815900020BDE85E
:1022F000F88F01E048000020401C0C28CFD358463E
:10230000F5E710B588B003A96846FFF7FEFD03287E
:1023100002D0012008B010BD07A8FFF7DBFA009833
:1023200007F098FA07990C4607F090F807F0BEFA04
:102330000090019807F08EFA214607F087F807F021
:10234000B5FA0190029807F085FA214607F07EF869
:1023500007F0ACFA0290684600F0D7FA06A8FFF73B
:10236000CFFA0020ADF8180003900490059003A860
:1023700000F02DFB0020CDE790F90010002902DDD0
:102380004FF00000704702DA4FF00400704790F9F8
:102390000110002902DD4FF00100704702DA4FF012
:1023A0000500704790F90200002802DD4FF002009E
:1023B000704702DA4FF0060070474FF00700704791
:1023C00000B50246FFF7D8FF0346D01CFFF7D4FF45
:1023D00043EAC003901DFFF7CFFF43EA801080B2AD
:1023E00000BD10B5FEF714FCFFF76EF808B10A2027
:1023F00010BD7820FEF798FD10F0FF0F01D00120EE
:1024000010BD7820FEF70BFF10F0FF0F01D0022067
:1024100010BDC820FEF7B9FF10F0FF0F01D0032058
:1024200010BD00F0EFF910F0FF0F01D0042010BD37
:10243000EA48FFF7C5FF00F0EDF910F0FF0F01D0FB
:10244000052010BD40F2731000F02FFD10F0FF0FBB
:1024500001D0062010BDC82000F020FB10F0FF0FB7
:1024600001D0072010BD0120FFF713FD10F0FF0081
:10247000F8D0092010BD2DE9F74F8EB00CA906A8A1
:10248000CDE900010BAB02AA09A907A800F01AFECA
:1024900010B1012011B02BE6BDF81800C0057DD5A4
:1024A000029807F0D7F96FF01D04214607F03EF8B7
:1024B0008146039807F0CEF9214607F037F88046A9
:1024C000049807F0C7F9214607F030F8064605984A
:1024D00007F0C0F9214607F029F882460121484655
:1024E00007F024F80746314606F0B0FF04464FF0E7
:1024F0004041404606F0AAFF0546514606F0A6FFB9
:10250000214606F04BFF07F036FA07F0FFFE4FF0CA
:10251000663B5A46B24B07F0BCF807F03FFA0E99FB
:1025200008600121304607F001F83146009006F0BE
:102530008DFF04462846414606F088FF214606F0F6
:102540007FFF4FF07E5106F029FF07F014FA044692
:102550000D463846414606F079FF07465146009839
:1025600006F074FF394606F019FF07F004FA224618
:102570002B4608F013F95A46994B07F08AF807F0F2
:102580000DFA0F9908605146084606F05FFF0746AE
:102590003146084606F05AFF054600E034E0414661
:1025A000084606F053FF04464946084606F04EFF2B
:1025B000214606F0F3FE294606F042FF394606F0B2
:1025C0003FFF07F0D8F904460D465146484606F04D
:1025D0003DFF07463146404606F038FF394606F0D3
:1025E000DDFE012106F0A2FF07F0C5F922462B46C9
:1025F00008F0D4F85A467A4B07F04BF807F0CEF9BA
:1026000010990860002045E7022043E72DE9FE4FBE
:1026100080460F460025684600F090F800246FF0D1
:102620000F0AE946012658F8240057F82410401AEA
:1026300000D5404207F00EF9514606F077FF59F8F1
:10264000241011F0FF4F0BD006F032FF4FF07E51F7
:1026500006F0F6FE634920F00040884205DC07E002
:10266000614908446149884202D306FA04F00543EF
:10267000641C032CD7DB28460AE42DE9F84F824678
:10268000564889462C38002540686B46032200785E
:102690000D21FEF702FA08B1072028E69DF8000098
:1026A000002400F01F008DF800009DF801006F4627
:1026B00000F01F008DF801009DF802004FF00108A6
:1026C00000F01F008DF802005AF8241059F8240079
:1026D000081A00D5404207F0BDF86FF00F0106F070
:1026E00025FF0646385DE0B1414ADFF808B104E055
:1026F0005946104606F0AAFE0246385D401E10F00C
:10270000FF003855F4D11146304606F0D1FE4FF0A7
:102710007E5106F095FE334920F00040884205DCEA
:1027200007E035483044B0F1D97F02D908FA04F007
:102730000543641C032CC7DB2846D8E52DE9FC477C
:10274000054626486B462C38042240680D21007847
:10275000FEF7A3F910B10720BDE8FC879DF8000043
:102760001C2101EAD0029DF80300DFF89090C0F32D
:1027700001131A438DF804209DF80120C0F3810352
:1027800001EAD2021A438DF805209DF8022000F0DC
:10279000030001EAD20101430024194F8DF806100D
:1027A000A04601AE305D10B145F8249009E045F82F
:1027B00024800CE055F82400394606F047FE45F821
:1027C0002400305D401E10F0FF003055F2D1641C33
:1027D000E4B2032CE6D30020BEE700007400002022
:1027E00066A64C40295C0F3E666666C19A99D90080
:1027F0000000C84154E3853F0000E0BE7B14AE3EBC
:102800001D5A843FC8234FF48062FE4940F6F630DB
:10281000FFF740BC2DE9FF410446FBA002AB006876
:102820000290FAA000680390F9A00668F9A0056874
:1028300004F00300195C8DF80010C4F3C1015A5C68
:102840008DF80120C4F381129B5C8DF8023003AB3C
:10285000185C8DF80400585C8DF80500985C8DF8C4
:1028600006006A46032140F22640FFF7C3FB4FF003
:10287000FF37E0BB01AA032140F22A40FFF7BAFB71
:10288000A8BBCDE9006560070BD59DF8000040F0BE
:1028900001008DF800009DF8040040F001008DF863
:1028A0000400A0060BD59DF8010040F001008DF852
:1028B00001009DF8050040F001008DF80500E005DD
:1028C0000BD59DF8020040F001008DF802009DF844
:1028D000060040F001008DF806006A4603214FF41F
:1028E0008860FFF787FB10B901AA032100E004E02C
:1028F00040F23140FFF77EFB18B1384604B0BDE826
:10290000F081C54804810020F8E7F8B5C24909897B
:1029100001F0030250F822404A0700D56442C1F397
:10292000C10250F822308A0600D55B42C1F3811201
:1029300050F82220C80500D55242B84984FB014016
:10294000850045EA947083FB014382FB0121950FCA
:1029500045EA8105010E8DF80010010C8DF801107B
:10296000010A8DF80210A40F8DF8030044EA8304D5
:102970006A4604214FF47470FFF73CFB4FF0FF36BA
:1029800088B9200E8DF80000200C8DF80100200A77
:102990008DF802008DF803406A4604214FF47570EB
:1029A000FFF728FB08B13046F8BD280E8DF800006F
:1029B000280C8DF80100280A8DF802008DF80350CC
:1029C0006A4604214FF47670FFF714FBF8BD2DE939
:1029D000FF41044603A8FEF793FFBDF80C00420C2C
:1029E000C3038D48018901F003004D0754F820000E
:1029F00000D54042C1F3C1058E0654F8255000D5DC
:102A00006D42C1F38116C90554F8264000D56442D1
:102A1000A0FB0367C11701FB037100FB02108100DB
:102A200041EA9670A5FB0367E91701FB037105FBFB
:102A300002118D0045EA9671A4FB0367E51705FBBB
:102A4000037304FB0232930043EA9672030E8DF87F
:102A50000030030C8DF80130030A8DF802308DF838
:102A60000300080E8DF80400080C8DF80500080A14
:102A70008DF80600100E8DF80800100C8DF8090076
:102A8000100A8DF80A008DF807108DF80B206A46A1
:102A90000C214FF42570FFF7ADFA2FE730B504464F
:102AA0005FA185B007C98DE807004FF0FF35C82C3E
:102AB00016D8C820B0FBF4F1491E080A8DF80C00A6
:102AC0008DF80D1003AA022140F21620FFF792FAAA
:102AD00030B96A460C2140F6C120FFF78BFA10B1DD
:102AE000284605B030BD4C4884810020F9E74A49AA
:102AF00089890180002070472DE9FC410546400787
:102B00004FF0FF367CD0B1F5C86F79D8084606F093
:102B1000AAFE464906F0CCFC074601A8FEF793FE44
:102B20009DF80400022806D004280DD008282ED0D5
:102B3000102865D134E00E21384606F0F7FC06F087
:102B4000CEFE84B23A4907E00D21384606F0EEFC8D
:102B500006F0C5FE374984B2384606F077FC06F029
:102B6000BEFE210A8DF8001080B28DF80140010AE6
:102B70008DF802108DF80300E8076C4620D022463D
:102B800002214FF4EA70FFF735FAC8BB11E00C21BF
:102B9000384606F0CBFC06F0A2FE84B22649DBE7FD
:102BA0000B21384606F0C2FC06F099FE84B2234998
:102BB000D2E7A21C02214FF49270FFF71BFAF8B97A
:102BC000A8070DD56A4602214FF4EC70FFF712FA00
:102BD000B0B9A21C02214FF49470FFF70BFA78B938
:102BE000680731D56A4602214FF4EE70FFF702FA0A
:102BF00030B9A21C02214FF49670FFF7FBF91FE0D9
:102C00001FE00000CCA900084CCD6C000CC92C00C2
:102C10003656760026466600DC01002009E3CA022B
:102C2000FEF2ABC4AAF1DFDFBBAFDFDF0000484339
:102C3000000040460000C045000040450000C04480
:102C400010B13046BDE8FC810020FBE708B500214B
:102C50008DF80010C10702D030218DF800108107D7
:102C600005D59DF8001041F00C018DF800104007CB
:102C700005D59DF8000040F003008DF800006A467D
:102C800001214FF4A470FFF7B5F908BD08B560B194
:102C9000042800D90420401E8DF800006A46012156
:102CA00040F24F10FFF7A6F908BD0120F3E7052118
:102CB000B0FBF1F008B5010A8DF800108DF80100A5
:102CC0006A4602214FF4EF70FFF794F908BD052121
:102CD000B0FBF1F008B5010A8DF800108DF8010085
:102CE0006A4602214FF4ED70FFF784F908BD4FF4F6
:102CF0007A7290FBF2F008B54843010E8DF800108F
:102D0000010C8DF80110010A8DF802108DF80300F6
:102D10006A4604214FF4AE70FFF76CF908BD052137
:102D2000B0FBF1F008B5010A8DF800108DF8010034
:102D30006A4602214FF4AD70FFF75CF908BD05212A
:102D4000B0FBF1F008B5010A8DF800108DF8010014
:102D50006A4602214FF4AC70FFF74CF908BD38B554
:102D600004004FF0FF3506D06A4604214FF4587036
:102D7000FFF768F908B1284638BD00989DF80310A0
:102D800000BA20F0FF0008432060002038BD08B5DD
:102D9000010E8DF80010010C8DF80110010A8DF85C
:102DA00002108DF803006A4604214FF45870FFF7B3
:102DB00021F908BD38B504004FF0FF3506D06A464A
:102DC00004214FF47170FFF73DF908B1284638BD72
:102DD000009800BA20F0FF019DF80300014301EBC9
:102DE000810080002060002038BD1421B0FBF1F08C
:102DF00008B5010E8DF80010010C8DF80110010AC4
:102E00008DF802108DF803006A4604214FF47170AA
:102E1000FFF7F0F808BD08B560B120208DF800007C
:102E200028208DF8010030208DF8020038208DF820
:102E3000030004E0A3220421684606F080FA6A46F3
:102E4000042140F69E20FFF7D5F8FEF730F908BDC3
:102E500008B560B1C0208DF80000C2208DF80100D7
:102E6000C4208DF80200C6208DF8030004E08B22F8
:102E70000421684606F063FA6A46042140F6982069
:102E8000FFF7B8F8FEF713F908BD0EB54FF49763D6
:102E900008B1E1A000E0E3A007C88DE807006A469A
:102EA00009211846FFF7A6F80EBD3EB504460220DC
:102EB0008DF80000CA208DF80100E3208DF8020093
:102EC00009208DF803006A4604216820FFF792F874
:102ED000A3208DF80000610609D5C0218DF80110EE
:102EE000C8218DF80210C2218DF8031005E08DF87D
:102EF00001008DF802008DF8030014F4C07F09D0A2
:102F0000C4218DF80410CC218DF80510C6218DF850
:102F1000061005E08DF804008DF805008DF8060018
:102F20008DF808008DF807008DF809006A460A211F
:102F300040F6A720FFF75EF8A0074FF0D80503D0B2
:102F400020208DF8000001E08DF800506A46012134
:102F500040F6B620FFF74EF8A00601D5012000E0AC
:102F60000020FFF792FF14F4C07F1ED0E0050AD5C1
:102F7000B2208DF800008B208DF80100B6208DF86E
:102F800002009B2009E0B0208DF8000080208DF821
:102F90000100B4208DF8020090208DF803006A46ED
:102FA000042140F6A220FFF725F8E0074FF40B6359
:102FB00023D0F8208DF800006A4601211846FFF75B
:102FC00019F8FA210720FFF797FD0720FFF73EFECB
:102FD0000120FFF75BFE6420FFF769FE4FF4FA70F3
:102FE000FFF775FEC8219248FFF781FE2820FFF702
:102FF00096FE0A20FFF7A3FE06E08DF800506A4611
:1030000001211846FEF7F6FFA00703D5D9208DF859
:10301000000001E08DF800506A46012140F23D7049
:10302000FEF7E8FF600701D5012000E00020FFF770
:103030000FFFE00601D5012000E00020FFF7EBFEC6
:103040007C4D44F008006881FEF731F80020A87339
:10305000600601D50620A87314F4C07F02D0A87BB7
:10306000801DA87314F0140F02D0A87B1030A87331
:10307000A00702D0A87B001DA87300203EBD6D49AB
:10308000498901800020704700B56BA187B00EC947
:103090008DE80E006BA10DF10C0C0EC98CE80E0032
:1030A00040F68223012807D0022803D04FF0FF30DA
:1030B00007B000BD6A4600E003AA0B211846FEF7E0
:1030C00099FFF5E72DE9FF4F89B01646DDE9165265
:1030D0000024DFF860810F4681462C80A24698F8D4
:1030E0000E006946FEF704FD4FF0FF3B18B158464D
:1030F0000DB0BDE8F08FB8F80A0010F0140F3CD006
:10310000009909BA21F0FF0C9DF803104CEA010C5C
:10311000C6F800C0019909BA21F0FF039DF8071015
:103120000B43736002999DF80B2009BA21F0FF014F
:103130001143B160039A9DF80F4012BA22F0FF02CA
:103140002243F2604FEA2C4609141B1412147643F2
:10315000494303FB036302FB021119441024A1F14C
:103160007061B1F1007F04D9FDF7A1FFA5F800A0BF
:10317000BDE7298841F48071298041066A460ED551
:103180001119A41D0B885BBA3B804B885BBA7B800E
:10319000898849BAB980298841F00801298010F44A
:1031A000C07F11D01119A41D0B885BBAA9F800309B
:1031B0004B885BBAA9F80230898849BAA9F804108B
:1031C000298841F070012980800718D01444E078E4
:1031D00000F0C00500F03F016078C00707D0C808C4
:1031E00001F00701D8F80020491C02B1904760782F
:1031F000000704D5D8F8041009B1A80988470C982D
:10320000FEF7FDF9002073E70A49086000207047C7
:103210000849486000207047B8AAB38DB4980D35AE
:103220005D000000B8AAAAAAB088C3C5C700000004
:1032300009E3CA02DC010020D8B1B9F38BA391B62F
:1032400009B4D900DAB1B9F38BA391B6DAB4DA00D4
:1032500010B50121042002F00EF80121082002F02F
:103260000AF80121042002F00FF80121BDE8104006
:10327000082002F009B838B548258DF80350C02061
:10328000ADF8000003248DF802406946454801F07E
:103290000AFE8DF80350ADF800408DF802406946F3
:1032A000414801F000FE38BD2DE9F04186B0684686
:1032B00002F067FD0024DFF8F480ADF800400F2530
:1032C000ADF80850ADF802406946404602F07AFC7D
:1032D0000427ADF80070ADF80850ADF8024069461B
:1032E000404602F06FFC00231A460321404602F0DC
:1032F000D6FDADF812404FF6FF76ADF81060ADF890
:103300000C408DF8144003A9404602F0A3FA0121B5
:10331000404602F047FD684602F033FDDFF890803A
:10332000ADF80040ADF80850ADF80240694640469F
:1033300002F048FCADF80070ADF80850ADF802405E
:103340006946404602F03EFC00231A4603214046EF
:1033500002F0A5FDADF81240ADF81060ADF80C40DC
:103360008DF8144003A9404602F074FA012140464A
:1033700002F018FD06B0BDE8F08110B5FFF768FF58
:10338000FFF779FFBDE810408EE7808CC11304D0B1
:10339000C0F30E00A0F5FE40FF3870470021818485
:1033A00070470000000C0140000801400008004088
:1033B000000C004010B5EA48FFF7E7FFE94CA060B9
:1033C000E948FFF7E2FF4042E06010BDE54A10B572
:1033D0009032111F081FFFF74EF8E2498A1D08704E
:1033E000091DBDE81040881EFDF7AABB70B5DD4C75
:1033F00001280FD0022816D1DB4D2846FFF7C5FF64
:10340000414201EB8100400060612846BDE8704008
:10341000FFF7C4BFD24D2846FFF7B7FF00EB80008F
:1034200040002061F1E770BD70B5CE4CCC4D206AF4
:1034300060622846FFF7A9FFA1690144A1616421E8
:103440004843A0622846FFF7A9FFD4E90A10C74EF7
:1034500046F82010401CE0620A2836DB00200A25CE
:10346000E06200206D1E0BE006EB800156F8202084
:103470004B689A4202DD46F820304A60401CC0B2D8
:10348000A842F1DB15F0FF05EBD10021022056F830
:103490002020401CC0B211440828F8D3062091FB1C
:1034A000F0F5A562606A06F0D5F9B14905F0CEFFE6
:1034B0000646284606F0CEF9AE4905F0C7FF31466C
:1034C00005F06CFF06F0F2F9206270BD70B5A54CF6
:1034D000A54D206B60632846FFF757FF4142E06926
:1034E0000844E061642041432846A163FFF756FF8A
:1034F0009E4ED4E90E10283646F82010401CE0639A
:103500000A2836DB00200A25E06300206D1E0BE050
:1035100006EB800156F820204B689A4202DD46F8FF
:1035200020304A60401CC0B2A842F1DB15F0FF0514
:10353000EBD10021022056F82020401CC0B21144DB
:103540000828F8D3062091FBF0F5A563606B06F020
:1035500081F9874905F07AFF0646284606F07AF990
:10356000844905F073FF314605F018FF06F09EF917
:10357000206370BD002800DA4042704770B50246F3
:10358000FFF7F8FF7C4D0446012909D0022923D119
:10359000002A17DB81B2284602F009FE002116E05E
:1035A000002A05DB0021284602F0FDFDA1B204E05F
:1035B00081B2284602F0F7FD00212846BDE87040A0
:1035C00002F0F3BD0021284602F0F1FDA1B2284629
:1035D000BDE8704002F0EDBD70BD70B5614C0D46A8
:1035E000E16D05F030FF06462846616E05F02EFFBE
:1035F00005463146206E05F029FF294605F0CEFE2E
:10360000BDE8704006F052B92DE9F041DFF8548171
:10361000014408F18004D8F854000D1A206806F01F
:1036200027F9564E564B324606F033F806F06BF942
:103630000746284606F01CF93246524B06F029F898
:1036400005460E46384606F013F92A46334605F07D
:1036500079FF06F058F920606168054608444FF488
:10366000FA516060884202DC4942884200DA6160B7
:10367000606806F0EFF84646D8F86C1005F0E6FEF4
:103680000746284606F0E6F8B16E05F0DFFE39463B
:1036900005F084FE06F00AF9B0673B4AA168914242
:1036A00002DA3A4A914201D300216160BDE8F0811B
:1036B00010B52C4A10F0FF4F06D0116F05F0C6FE72
:1036C000BDE8104006F0F2B8506FF7E770B5254C32
:1036D000B4F9040006F0BEF804F180050146A868BC
:1036E000FFF77BFF6064D4E90401FFF78DFF2064DE
:1036F000B4F9060006F0AEF80646A06D06F0AAF88A
:103700003146FFF7D5FFA064D4E910210A4411180F
:10371000101A4FF4E152C4E913105342914201DBF5
:10372000E26402E0994200DCE364904201DB22653E
:1037300002E0984200DC23651349A868884202DA57
:103740001249884202D30020E06420650121E06C28
:10375000FFF714FF206DBDE8704002210EE7000066
:10376000000C00408000002000080040EC01002018
:10377000CDCC4C3ECDCC4C3F000400409A99999959
:103780009999E93F9999C93F0000A0420000A0C261
:1037900010B50121042001F06EFD0121082001F087
:1037A0006AFD0121BDE81040022001F06DBDF8B5B1
:1037B0004020ADF8000003255A4E8DF80250182421
:1037C0008DF803406946304601F06DFB8020ADF86E
:1037D00000008DF802508DF803406946304601F034
:1037E00062FB0120ADF800004F4E8DF802508DF8BD
:1037F00003406946304601F056FB0220ADF8000058
:103800008DF802508DF803406946304601F04BFBBD
:10381000F8BDF0B587B00021444801F0CFFB4FF46C
:10382000E150ADF814000020ADF81000404FADF8A5
:103830001600ADF8120004A9384602F00BF8012179
:10384000384602F0AFFA6024ADF8004001250226A8
:10385000ADF80250ADF808606946384602F033F81A
:103860000821384602F07CFBADF80040ADF802506C
:10387000ADF808606946384602F05AF80821384623
:1038800002F07EFBADF80040ADF80250ADF80860E4
:103890006946384602F088F80821384602F07AFB7B
:1038A000ADF80040ADF80250ADF808606946384602
:1038B00002F0B4F80821384602F072FB07B0F0BD00
:1038C00008B54FF4407001F03FFA1D208DF800005C
:1038D00005208DF8010000208DF8020001208DF8F0
:1038E0000300684601F035FA08BD10B5FFF750FF38
:1038F000FFF75DFFFFF78DFFFFF7E2FF0C4C0021A4
:10390000204602F050FC0021204602F04EFC00212F
:10391000204602F04CFC2046BDE81040002102F099
:1039200048BC000000080140000C014000081A00DB
:1039300000040040654964480860002048608860D1
:103940008861C8610862624ACA600861614A4A6166
:103950002431614B0B60486088608861C8610862EF
:103960004FF07C53CB600A615C4A4A6124310860A5
:10397000486088608861C86108624FF08240C86012
:103980004FF0814008614FF07E504861704770B53C
:103990001D46044612B1012A04D014E0206805F047
:1039A0004FFD0FE0206805F04BFDA061A06929469E
:1039B00006F010F807D885F00040294606F00AF80E
:1039C00001D80020A061E069012105F0AFFDA169E7
:1039D00005F039FD216A05F0E1FC616905F036FD6D
:1039E000A1690546206905F031FDE1690646A06937
:1039F00005F026FDE16805F029FD314605F0CEFC15
:103A0000294605F0CBFC616805F0C8FC6060E06900
:103A10002062A069E0616068BDE8704005F046BFC3
:103A200070B51D46044612B1012A05D016E0206883
:103A300005F006FDA06111E0206805F001FDA06120
:103A4000A069294605F0C6FF08D885F00040294640
:103A500005F0C0FF02D80020A061A060A169A068A5
:103A600005F09CFCA060E169A06905F0E9FC6169D2
:103A700005F0ECFCA1680546206905F0E7FCA169AA
:103A80000646E06805F0E2FC314605F087FC294671
:103A900005F084FC6060A069E0616068BDE870408A
:103AA00005F004BF70B5044615460E46806805F063
:103AB0009BFF01D8A66070BDA068294605F08AFF6B
:103AC000F9D8A56070BD00000000AF443C020020A2
:103AD00000002040CDCC4C3E00803B45CDCCCC3DC1
:103AE00010B50121042001F0C6FB0121880301F07B
:103AF000C2FB0121BDE81040084601F0BCBB38B54F
:103B00004FF40070ADF8000003208DF8020018207B
:103B1000FF4C8DF803006946204601F0C4F92115D9
:103B2000ADF8001004218DF803106946204601F01D
:103B3000BAF938BD1FB54FF4E13000900020ADF860
:103B40000400ADF80600ADF80800ADF80C000C203C
:103B5000F04CADF80A006946204601F00BFC01224A
:103B600040F22551204601F082FC0121204601F05F
:103B700074FC4021204601F02EFD1FBD08B54FF416
:103B8000407001F0E1F825208DF8000004208DF848
:103B9000010000208DF8020001208DF80300684626
:103BA00001F0D7F808BD10B5FFF79AFFFFF7A7FFA0
:103BB000FFF7C0FFBDE81040E0E770B5D64DFF232A
:103BC0001A4605F5807605E010F8014B54402A5D51
:103BD0005A40335D491E89B2F6D242EA032070BDD5
:103BE0002DE9F0410D4606460024CA4F0BE0315D39
:103BF000384601F088FC8021384601F0E5FC0028B9
:103C0000F9D0641CA4B2AC42F1D3BDE8F081F0B5A8
:103C10008BB00446C5208DF80000A1F11000BF4E06
:103C20006427BF4A4FF0020C6D4621287DD2DFE8A1
:103C300000F011151D2E4B8294C2FDFCFB7C7C7C98
:103C40007C7CFAFAFAFAFAFAFAFAFAFA7C7C7C7CC8
:103C50007C7CF9008DF801102078F1E08DF80110DE
:103C60006088000A8DF80200A07828E08DF8011025
:103C700020794FF0050C00F008008DF80200E08874
:103C8000000A8DF80300A0798DF804003CE18DF85E
:103C90000110A06805F023FEC0B26521B0FBF1F26F
:103CA00001FB12008DF802003146A06805F0CEFB42
:103CB00005F015FE80B2B0FBF7F107FB11008DF89F
:103CC00003004FF0040C1FE18DF801101646114659
:103CD000E06805F0BBFB05F0E9FD000A8DF8020085
:103CE0003146E06805F0B2FB05F0E0FD8DF8030019
:103CF0003146206905F0AAFB05F0D8FD000A8DF8D1
:103D000004003146206905F0A1FB05F0CFFD8DF8D8
:103D100005003146606905F099FB05F0C7FD000A12
:103D20008DF806003146606900E012E105F08EFB77
:103D300005F0BCFD75E08DF801107A4EA0693146A2
:103D400005F02CFB05F0CBFD8DF802003146E06953
:103D500005F024FB05F0C3FDB1E78DF8011054F820
:103D6000240F4FF00A0C000E8DF8020054F80409DD
:103D7000000C8DF80300A088000A8DF8040020795B
:103D80008DF8050020682179000E40EA01208DF8A9
:103D9000060020682179000C40EA01408DF80700F8
:103DA00020882179000A40EA01608DF80800207817
:103DB0008DF80900A8E08DF80110A06A05F076FDE5
:103DC0008DF802003146A06A05F040FB05F06EFD5B
:103DD00000B290FBF7F107FB11008DF80300E06AD9
:103DE00005F064FD8DF804003146E06A05F02EFB15
:103DF00005F05CFD00B290FBF7F107FB11008DF8B8
:103E00000500206B05F052FD8DF806003146206B51
:103E100005F01CFB05F04AFD00B290FBF7F107FB33
:103E2000110004E055E030E01DE00EE004E08DF804
:103E300007004FF0080C67E08DF8011094F834008B
:103E40008DF802004FF0030C5EE08DF8011016466D
:103E50001146A06B05F0FAFA05F028FD000A8DF86E
:103E60000200A06B0BE08DF801103146E06B05F00D
:103E7000EDFA05F01BFD000A8DF80200E06B3146FB
:103E800005F0E4FA05F012FD19E78DF8011001EBD9
:103E90004101002004EB810303EB8001A1F5A07137
:103EA000401C0A7805F80C200CF1010C0CF0FF0204
:103EB0004C78AC54521CD2B28C78AC54521CD2B256
:103EC000C978A954521CC0B202F0FF0C0328E3D3F6
:103ED00016E08DF80110002004EB4002401C32F87F
:103EE000B81FC0B2090A05F80C100CF1010C0CF057
:103EF000FF0112786A54491C01F0FF0C1028EBD323
:103F00009DF80100FE2822D0614668460CE00000C2
:103F10000008014000380140C2B500080000C84256
:103F200000007A4400004842FFF747FE010A05F806
:103F30000C100CF1010C0CF0FF016854491CC8B2C4
:103F40005C212954401CC1B26846FFF749FE0BB002
:103F5000F0BDFE208DF80100F9E72DE9F041FB4EA0
:103F600086B07178112901D3002171700178F84F62
:103F70007278B95400785C287ED170784FF01108BF
:103F800041460D30B0FBF1F208FB1200385C6C4684
:103F9000C52864D100200D46717801440D31B1FB74
:103FA000F5F205FB1211795C2154401CC0B20228C5
:103FB000F2D302212046FFF700FE71781031B1FBE9
:103FC000F5F205FB12117A5C71780F31B1FBF5F354
:103FD00005FB1311795C42EA012188423FD17078D8
:103FE0000E30B0FBF5F105FB1100385C192836D115
:103FF000D74810211830FFF70AFED5481121183094
:10400000FFF705FED24812211830FFF700FED04816
:1040100013211830FFF7FBFDCD4814211830FFF7AE
:10402000F6FDCB4815211830FFF7F1FDC8481621E1
:104030001830FFF7ECFDC64817211830FFF7E7FDF1
:10404000C34818211830FFF7E2FD2025C048294653
:104050001830FFF7DCFD6D1CEDB2292DF6D370781A
:10406000C4460C30B0FBFCF108FB1100385CB84DC5
:10407000F035C52842D100E0FBE000207178014412
:104080000C31B1FBFCF20CFB1211795C2154401C89
:10409000C0B20328F2D303216846FFF78EFD717882
:1040A0001031B1FBFCF20CFB12117A5C71780F310C
:1040B000B1FBFCF30CFB1311795C42EA012188424D
:1040C0001CD170780D30B0FBFCF10CFB1100385C9A
:1040D000212802D0222811D108E070780E30B0FBE0
:1040E000FCF10CFB1100385C287007E070780E3092
:1040F000B0FBFCF10CFB1100385C68707078E04696
:104100000B30B0FBFCF20CFB1200385CC52859D117
:104110000020C446717801440B31B1FBFCF20CFB6A
:104120001211795C2154401CC0B20428F2D304213E
:104130006846FFF742FD71781031B1FBFCF20CFBD1
:1041400012117A5C71780F31B1FBFCF30CFB131187
:10415000795C42EA0121884234D170780C30B0FB9E
:10416000FCF10CFB1100385C232802D0242829D153
:1041700014E070780E30B0FBFCF10CFB1100395CE0
:1041800070780D30B0FBFCF20CFB1200385C41EA99
:10419000002000B205F05EFB696812E070780E3016
:1041A000B0FBFCF10CFB1100395C70780D30B0FBFA
:1041B000FCF20CFB1200385C41EA002005F053FBD6
:1041C000A968086070784546401CB0FBF5F108FB13
:1041D0001100385CC5284CD1002071780144491C7D
:1041E000B1FBF5F205FB1211795C2154401CC0B201
:1041F0000E28F2D30E216846FFF7DFFC71781031EC
:10420000B1FBF5F205FB12117A5C71780F31B1FB4D
:10421000F5F305FB1311795C42EA0121884228D1AC
:104220007078801CB0FBF5F105FB1100385C31386B
:1042300009281ED8464B0020183371780144C91C48
:10424000B1FBF5F205FB12117A5C7178891CB1FBA8
:10425000F5F405FB1411795C01EB410103EB8101DD
:104260000144A1F58051401CC0B281F8F42D0C2806
:10427000E3D37078401C707006B0C6E410B5354CBE
:1042800040F22551204601F0A9F900280DD0204622
:1042900001F03DF92D4908700846FFF75EFE8021C8
:1042A000204601F091F90028F9D010BDD82105F081
:1042B0004DB827481830F9E72DE9F041244C07465E
:1042C000F034224D60680E4690460068696805F03B
:1042D000B7F805F0EBFA002800DA404205F0BAFA28
:1042E000414605F081FB02D2616868680860606839
:1042F00001683846696005F06DFB01D860680760A9
:1043000060683146006805F065FB01D860680660AA
:104310007BE430B40E4C029DF03461600C4900EB3C
:104320004004183101EB8404A4F5A074014684E82C
:104330002C00074830BC183069E4054B243383E86F
:1043400007001421A3F10C0061E400001401002017
:10435000A8020020003801402A498860132129481A
:1043600055E42849C8631A21264850E410B505F0E1
:104370009DFA24494880BDE810401121214846E4B7
:10438000204AC2E908011621104640E41D4AC2E94C
:104390000610152110463AE41A49087010211948F0
:1043A00035E4184981F83400182116482FE4154ADD
:1043B00002EB4000A0F8B6103021104627E410B5FB
:1043C00000EB40040F4800EB8400A0F5A0700468E7
:1043D0000C60416811608068186010BD0949D831CF
:1043E0000878401E02280BD8074A9078401CC0B2BB
:1043F0009070022802D300209070087008787047EF
:1044000000207047C00200201401002010B50121D7
:10441000102000F030FF0121480200F02CFFBDE821
:1044200010404FF4004000F0BABE08B51020ADF8BF
:10443000000000208DF803006946624800F033FD5B
:1044400008BD10B586B000214FF46020CDE902010F
:1044500002208DF804108DF8100000918DF80510E1
:10446000012002F03BF8584C6946204601F0EEFE70
:10447000072301220E21204601F068FF07230222B4
:104480001021204601F062FF0121204601F006FFC5
:10449000204601F020FF204601F022FF0028FAD13B
:1044A000204601F024FF204601F026FF0028FAD123
:1044B0000121204601F027FF06B010BD10B5FFF71F
:1044C000A5FFFFF7B2FFBDE81040BAE770B53E4E5A
:1044D0000025072301220E21304601F037FF00247A
:1044E0000121304601F00FFF0221304602F002F8B0
:1044F0000028F9D0304601F06DFF641CE4B2054499
:104500000A2CEDD30A20B5FBF0F005F0C2F92F4AD2
:104510002F4B05F0BEF805F041FA2E4C606005F017
:104520002AFA2D4A2D4B05F0B4F805F037FAA060B1
:1045300070BD70B5244E002507230122102130469E
:1045400001F004FF00240121304601F0DCFE0221CD
:10455000304601F0CFFF0028F9D0304601F03AFF95
:10456000641CE4B205440A2CEDD30A20B5FBF0F03C
:1045700005F08FF9154A164B05F08BF805F00EFA89
:1045800005F0F9F9164A174B05F080F8164A174B53
:1045900005F0F1F80022164B04F0D4FF154A164B33
:1045A00005F0E9F805F0CEF90A49487070BD10B57C
:1045B000FFF78CFF0748114A8168914201DA012117
:1045C000017010BD0010014000240140A07BA5A98E
:1045D00052494A3F1C010020158F8B6A1111F93F87
:1045E000E17A14AE47E1F63F22FDF675E09C713F9B
:1045F00000003940CDCCCCCCCCCCF43FCDCC4C4021
:1046000010B50121202000F036FE0121480400F001
:104610003BFE0121BDE81040084600F02CBE38B535
:104620000121082000F0CAFC2020ADF80000032082
:104630008DF802001820CE4C8DF803006946204604
:1046400000F031FC4021ADF8001004218DF803107A
:104650006946204600F027FC38BD1FB54FF41650C0
:1046600000900020ADF80400ADF80600ADF8080099
:10467000ADF80C000C20BF4CADF80A00694620468E
:1046800000F078FE012240F22551204600F0EFFEB6
:104690000121204600F0E1FE4021204600F09BFF72
:1046A0001FBD08B54FF4407000F04EFB26208DF87A
:1046B000000006208DF8010000208DF80200012086
:1046C0008DF80300684600F044FB08BD10B5FFF705
:1046D00097FFFFF7A4FFFFF7C0FFBDE81040E0E73A
:1046E00010B5A44C40F22551204600F077FF002879
:1046F0000CD0204600F00BFFC1B2204600F003FFB3
:104700008021204600F060FF0028F9D010BD70B570
:10471000984E044680F035057E21304600F0F3FEC9
:104720008021304600F050FF0028F9D004213046A7
:1047300000F0E9FE8021304600F046FF0028F9D065
:104740003121304600F0DFFE8021304600F03CFF92
:104750000028F9D02146304600F0D5FE80213046B1
:1047600000F032FF0028F9D02946304600F0CBFE99
:104770008021304600F028FF0028F9D0EF21304694
:1047800000F0C1FE8021304600F01EFF0028F9D065
:1047900070BD70B5774E044680F044057E213046EA
:1047A00000F0B1FE8021304600F00EFF0028F9D065
:1047B0000521304600F0A7FE8021304600F004FFBE
:1047C0000028F9D04121304600F09DFE802130467E
:1047D00000F0FAFE0028F9D00021304600F093FEE8
:1047E0008021304600F0F0FE0028F9D02146304606
:1047F00000F089FE8021304600F0E6FE0028F9D066
:104800002946304600F07FFE8021304600F0DCFE75
:104810000028F9D0EF21304600F075FE80213046A7
:1048200000F0D2FE0028F9D0BDE87040642000F00E
:104830004DBA10B54F4C7E21204600F064FE802119
:10484000204600F0C1FE0028F9D00321204600F0E8
:104850005AFE8021204600F0B7FE0028F9D0012141
:10486000204600F050FE8021204600F0ADFE0028DA
:10487000F9D00221204600F046FE8021204600F0BB
:10488000A3FE0028F9D0EF21204600F03CFE802155
:10489000204600F099FE0028F9D010BD10B5354C27
:1048A0007E21204600F02FFE8021204600F08CFE65
:1048B0000028F9D00321204600F025FE8021204663
:1048C00000F082FE0028F9D00221204600F01BFEF5
:1048D0008021204600F078FE0028F9D001212046F2
:1048E00000F011FE8021204600F06EFE0028F9D075
:1048F000EF21204600F007FE8021204600F064FEF4
:104900000028F9D010BD10B51A4C7E21204600F0C9
:10491000FAFD8021204600F057FE0028F9D003213F
:10492000204600F0F0FD8021204600F04DFE0028DA
:10493000F9D00E21204600F0E6FD8021204600F04F
:1049400043FE0028F9D00D21204600F0DCFD802137
:10495000204600F039FE0028F9D0EF21204600F073
:10496000D2FD8021204600F02FFE0028F9D010BD96
:10497000001401400044004010B50121082000F05F
:104980007AFC0121880400F07FFC0121BDE8104081
:10499000084600F070BC38B54FF48060ADF80000F8
:1049A00003208DF802001820514C8DF80300694651
:1049B000204600F078FAE114ADF8001004218DF8DB
:1049C00003106946204600F06EFA38BD1FB54FF45B
:1049D000E13000900020ADF80400ADF80600ADF81D
:1049E0000800ADF80C000C20424CADF80A006946F6
:1049F000204600F0BFFC012240F22551204600F085
:104A000036FD0121204600F028FD4021204600F01F
:104A1000E2FD1FBD08B54FF4407000F095F9272066
:104A20008DF8000003208DF8010000208DF80200B1
:104A300001208DF80300684600F08BF908BD10B521
:104A4000FFF79AFFFFF7A7FFFFF7C0FFBDE8104091
:104A5000E0E770B5274E40F22551304600F0BEFD2C
:104A6000002817D0244C01253046257000F04FFD5A
:104A70006070A178A21D5054491CC8B2A0700728CC
:104A800002D90020A070E5708021304600F09CFD26
:104A90000028F9D070BD70B50446164D09E02846CF
:104AA00000F031FD8021284600F08EFD0028F9D06D
:104AB000641C21780029F2D170BD70B50E4C002025
:104AC000A41DA51F215CFF290AD121188A784B78E3
:104AD000C978D618761EF6B28E4201D12B716A7152
:104AE000401CC0B20828EDD30020A87070BD0000A3
:104AF000000C0140004800402901002070B5054627
:104B000001F039FD352001F046FF074C204601F049
:104B10006CFD2946204601F006FEBDE8704001F01C
:104B200036BD01480068704700F8070810B545F227
:104B3000555001F047FF042001F047FF4FF4966005
:104B400001F046FF01F047FFBDE8104001F048BF0B
:104B5000ECE701F040BF000070B535480024017853
:104B6000012902D10470FFF7A8FF324D0121324A1A
:104B70002878324B01280DD002280ED003280FD000
:104B8000042810D0052811D0062802D12C705171AC
:104B90001C7070BD2C701171FAE72C701170F7E762
:104BA0002C705170F4E72C709170F1E72C70D1707B
:104BB000EEE770B5FFF7D0FF1F4A0020204C1179B7
:104BC000204B012917D015781F49012D16D0557893
:104BD000012D19D09478012C1DD0D478012C20D02F
:104BE0005379012B16D150710878FFF7D2FDBDE83B
:104BF0007040FFF71EBE1071206017E0107008783B
:104C000000EB8000400004E0507008786FF009016C
:104C10004843206070BD907008786FF009014843E8
:104C200004E0D070087800EB80004000186070BD90
:104C30002C0100202D010020370100202B01002035
:104C4000D4000020D80000202E01002010B503F071
:104C5000DDFA012803D0BDE8104004F0C2B910BD50
:104C600010B5042000F0B5F82B482C492C4A0068F8
:104C7000B0FBF1F3B0FBF1F14FF47A7041431370E4
:104C8000012050804FF0E020026942F002020261F0
:104C90004161016941F00101016110BD70B54FF042
:104CA000E02500216C691E4AAB6912785043AA695D
:104CB0009A42FCD002D2A3EB020302E0A4EB02066C
:104CC0003344194413468142F1D370BD70B5044694
:104CD00003F09CFA01280CD0114D6888844203D35C
:104CE000B4FBF0F002F048FE6888B4FBF0F100FB82
:104CF00011444FF47A706043BDE87040CEE770B560
:104D0000054600244FF47A7603E03046FFF7C6FFED
:104D1000641CAC42F9D370BD0000002040420F007B
:104D20003E0100200648804706480047FEE7FEE7B0
:104D3000FEE7FEE7FEE7FEE7FEE7FEE7FEE7FEE74B
:104D400099020008310100082849084328490860F1
:104D5000704730B50F23C27801780125F2B1244A9B
:104D6000126801F1E02102F4E062C2F5E062120A89
:104D7000C2F10404D3404278A24084781C4014431A
:104D8000220181F80024007800F01F018D404009C5
:104D9000800000F1E020C0F8005130BD01F01F009C
:104DA00085404809800000F1E020C0F8805130BD06
:104DB000104A114001430E48001F016070470C4A21
:104DC000121D0029116801D0014300E081431160E8
:104DD00070474FF0E0210428086903D020F0040058
:104DE0000861704740F00400FAE700000000FA058F
:104DF0000CED00E080FFFF1F8F4910B5884206D1FF
:104E00000121042000F049FA002104203BE08B49F5
:104E1000884206D10121082000F03FFA0021082035
:104E200031E08749884206D10121102000F035FA8F
:104E30000021102027E08349884206D1012120204B
:104E400000F02BFA002120201DE07F49884206D186
:104E50000121402000F021FA0021402013E07B498D
:104E6000884206D10121802000F017FA002180201D
:104E700009E0774988420AD184150121204600F0D3
:104E80000CFA00212046BDE8104000F006BA10BD23
:104E900010B50121084600F000FA0021BDE81040DD
:104EA000012000F0FAB9F0B5CC78002204F00F032D
:104EB000E40601D58C7823430C784FF00F0C14F0E6
:104EC000FF0F4FF0010E1BD005680E880EFA02F49A
:104ED0002640A64210D196000CFA06F725EA0707ED
:104EE00003FA06F5CE783D43282E02D0482E02D094
:104EF00002E0446100E00461521C082AE5D3056029
:104F00000A88FF2A1CD94468002202F108060EFA1A
:104F100006F50E882E40AE420ED196000CFA06F72A
:104F2000BC4303FA06F7CE783C43282E00D14561F6
:104F3000CE78482E00D10561521C082AE5D3446082
:104F4000F0BD4FF6FF710180022181700421C17014
:104F500070470246002092680A4200D00120704744
:104F6000806880B2704702460020D2680A4200D0B2
:104F700001207047C06880B270470161704741618D
:104F800070470AB10161704741617047C160704765
:104F900041F48032826181618261816980697047F8
:104FA0002C4B10B51A684FF68074224042EA00106C
:104FB0000843186010BD2849C8617047F0B5254CFA
:104FC000002801DAE36900E06368450D2E0185B22F
:104FD000C0F30157B540C0F30342032F05D0C6020A
:104FE0000AD503269640B34307E023F07062636856
:104FF00023F07063636002E0AB4343F0706201B181
:105000002A43002801DAE261F0BD6260F0BD10B50C
:105010008A0721F003040F49120F21440F238C68E3
:1050200093409C438C608B68904003438B6010BD21
:105030000949C1F8DC00704700080140000C01403C
:10504000001001400014014000180140001C014004
:10505000002001400000014000002042A5480168F6
:1050600041F0010101604168A34A114041600168BB
:10507000A24A11400160016821F480210160416869
:1050800021F4FE0141604FF41F018160704799498E
:105090000A6822F480320A600A6822F480220A60D8
:1050A000B0F5803F07D0B0F5802F03D1086840F4F9
:1050B000A02008607047086840F48030F9E7034694
:1050C000002059098B4A01290AD002290AD0516AC5
:1050D00003F01F02012393400B4200D001207047D0
:1050E0001168F5E7116AF3E718B500204FF4A064E2
:1050F00000903120FFF7E3FF0099491C0091A14285
:1051000001D00028F5D03120FFF7D9FF002800D0CA
:10511000012018BD774A116821F0F80141EAC0006A
:1051200010607047764908607047724B5A680843B0
:1051300022F47C121043586070477149086670472A
:105140006C4A516821F0030101435160704769487E
:10515000406800F00C007047664A516821F0F00189
:10516000014351607047634A516821F4E061014393
:10517000516070475F4A516821F4605141EAC000B4
:10518000506070475B4A0029517A01D0014300E02A
:105190008143517270475A49C1F8D8007047554A47
:1051A000516821F440410143516070475149002248
:1051B00081F8202081F82020012802D0042802D183
:1051C000052081F8200070474E4908607047494922
:1051D0000A6A02430A6270474A49443908607047C4
:1051E00030B5444A5168484B11F00C0103D00429F2
:1051F00001D0082901D0036012E05168536801F41E
:1052000070114FF0020413F4803F04EB914102D07F
:1052100053689B0301D53D4B00E03B4B5943016074
:1052200051680F2303EA1111394B5C5C0168E140BE
:1052300041605468072505EA14241C5D21FA04F432
:105240008460546805EAD4241B5DD940C16052686B
:10525000032303EA92322E4B1B1F9A5CB1FBF2F13F
:10526000016130BD234A0029516901D0014300E0AA
:105270008143516170471F4A0029916901D0014360
:1052800000E08143916170471A4A0029D16901D039
:10529000014300E08143D1617047164A0029D1687B
:1052A00001D0014300E08143D1607047114A0029D9
:1052B000116901D0014300E0814311617047114938
:1052C0004039086070470E49C86470470949C87181
:1052D00070470848416A41F0807141627047054A51
:1052E0000146002092680A4200D00120704701491F
:1052F00088727047001002400000FFF8FFFFF6FEC2
:10530000000042428004424200127A0000093D003F
:1053100046010020C44910B588420AD101218C03FE
:105320002046FFF7BAFF2046BDE810400021FFF7F6
:10533000B4BFBE49884202D101214C0410E0BC49EF
:10534000884202D101218C040AE0BA49884202D184
:105350000121CC0404E0B84988420AD101210C059E
:105360002046FFF7A3FF2046BDE810400021FFF7CD
:105370009DBF10BD30B50446008A85B00D464CF681
:10538000FF710840E98801432182A0894EF6F3119C
:105390000840A9882A8911436A8902431143A181DF
:1053A000A08A4FF6FF410840A9890143A1826846BF
:1053B000FFF716FF9C48844201D1039800E0029851
:1053C000A189090400EBC00101EB0010296801D597
:1053D000490000E08900B0FBF1F06422B0FBF2F17B
:1053E00009010B096FF018056B4300EB8300A389DB
:1053F0001D044FF0320306D503EBC000B0FBF2F002
:1054000000F0070005E003EB0010B0FBF2F000F045
:105410000F000843208105B030BD4FF416510160E4
:1054200000218180C18001810C22428181817047ED
:1054300010B5028A4FF2FF031A400B884C882343B1
:105440008C88C9880C4323431343038210BD002179
:10545000018041808180C18070470029818902D00C
:1054600041F4005101E021F400518181704710B5F1
:10547000C1F3421301F01F040121A140012B07D009
:10548000022B07D01430002A026805D00A4304E03A
:105490000C30F8E71030F6E78A43026010BD002AAE
:1054A000828A01D00A4300E08A4382827047028ADE
:1054B00022F00F020282028A0A4302827047828926
:1054C00022F40062828182890A4382817047002926
:1054D000818902D041F0020101E021F002018181C5
:1054E0007047028A22F020020282028A0A43028264
:1054F00070470029018A02D041F4804101E021F483
:10550000804101827047C1F3080181807047808823
:10551000C0F308007047818941F001018181704723
:10552000028BD2B20283028B42EA012101837047CF
:10553000028B02F47F420283028B0A43028370478C
:105540000029818A02D041F0200101E021F02001F0
:10555000818270470029818A02D041F0100101E068
:1055600021F01001818270470029818A02D041F028
:10557000080101E021F0080181827047002981893A
:1055800002D041F4004101E0C1F30E018181704776
:105590000029818A02D041F4006101E021F4006118
:1055A00081827047828A22F004028282828A0A43C0
:1055B000828270470029818A02D041F0020101E015
:1055C00021F00201818270470246002012880A42BF
:1055D00000D001207047C9430180704770B501F0C9
:1055E0001F0501260024C1F3421306FA05F2012B20
:1055F0000FD0022B0FD0838A4FEA1121008813426B
:1056000006FA01F600EA060001D000B101242046A6
:1056100070BD8389F0E7038AEEE70A0A0121914011
:10562000C943018070470000003801400044004039
:1056300000480040004C0040005000403749002026
:105640000860091D0860091D0860091D08603349CC
:10565000334814310860704730B5304A83790168A7
:1056600053B313688B431360111D0B680468A34385
:105670000B60017911440B68046823430B60274BCE
:10568000083319680468A14319601C1D2168056866
:10569000A94321604179102905D011440A680068A6
:1056A00002430A6030BD196802681143196021681D
:1056B00000680143216030BD0079104402688A43CC
:1056C000026030BD0021016001710C2242718171C4
:1056D0007047124910310A6802430A607047014658
:1056E0000E4A0020143212680A4200D0012070478E
:1056F0000A49143108607047084A014600201268C0
:10570000064B0A4014331B680B4202D0002A00D01B
:1057100001207047014914310860704700040140BE
:10572000FFFF0F00F94910B5884202D10121C414CE
:1057300086E0B0F1804F09D0F54988420DD10121B2
:105740000220FFF7B3FD0021022064E0012108469A
:10575000FFF7ACFD002101205DE0EE49884206D153
:1057600001210420FFF7A2FD0021042053E0EA49B3
:10577000884206D101210820FFF798FD002108206A
:1057800049E0E649884206D101211020FFF78EFD4D
:10579000002110203FE0E249884206D1012120206B
:1057A000FFF784FD0021202035E0DE49884202D148
:1057B0000121441444E0DC49884202D10121CC0497
:1057C0003EE0DA49884202D101210C0538E0D8498F
:1057D000884202D101214C0532E0D649884206D1E7
:1057E00001214020FFF762FD0021402013E0D24953
:1057F000884206D101218020FFF758FD002180203A
:1058000009E0CE4988420AD1841501212046FFF7DC
:105810004DFD00212046BDE81040FFF747BDC849B7
:10582000884202D101210C040AE0C649884202D113
:1058300001214C0404E0C44988420AD101218C04AE
:105840002046FFF72AFD2046BDE810400021FFF763
:1058500024BD10BD30B50288AC4CB24DA0420DD075
:10586000A8420BD0B0F1804F08D0A94B984205D088
:10587000A84B984202D0A84B984203D122F0700363
:105880004A881A43A54B984206D0A54B984203D0AC
:1058900022F44073CA881A4302808A8882850A8863
:1058A0000285A0420AD0A84208D0A54A904205D05D
:1058B000A44A904202D0A44A904201D1097A0186BA
:1058C0000121818230BD30B5028C22F001020284B8
:1058D000028C8388048B22F0020224F073050C886A
:1058E0002C430D8915434A882A43884DA8420BD082
:1058F0008C4DA84208D0924DA84205D0914DA842A7
:1059000002D0914DA8420DD122F008054A8923F416
:1059100040732A4322F004058A882A438D891D4357
:10592000CB892B4383800483C9888186028430BD60
:1059300070B5028C22F010020284028C8388048BE2
:105940000D8824F4E6464FF6FF7404EA0525354336
:105950000E8922F0200204EA061616434A8804EA59
:1059600002123243694EB04202D06E4EB04215D19F
:1059700022F080064A8923F4406304EA021232438B
:1059800022F040068A8804EA021232438E8904EA31
:1059900086061E43CB8904EA830333438380058351
:1059A000C9880187028470BD70B5028C22F48072B0
:1059B0000284028C8388848B0D8824F07304254331
:1059C0000E894FF6FF7422F4007204EA062616438D
:1059D0004A8804EA022232434C4EB04202D0514E71
:1059E000B04215D122F400664A8923F4405304EAF8
:1059F0000222324322F480668A8804EA0222324379
:105A00008E8904EA06161E43CB8904EA0313334346
:105A100083808583C9888187028470BD70B5028CBC
:105A200022F480520284058C8288838B0C8823F4B4
:105A3000E6464FF6FF7303EA0424344325F4005688
:105A40000D8903EA053535434E8803EA06362E43B1
:105A50002E4DA84202D0334DA84205D122F48045F4
:105A60008A8903EA82122A4382808483C988A0F843
:105A70004010068470BD828B22F440628283828B48
:105A80004FF6FF7303EA01210A4382837047828B3A
:105A900022F00C028283828B0A4382837047028B3E
:105AA00022F440620283028B4FF6FF7303EA012166
:105AB0000A4302837047F0B5048C24F01004048478
:105AC000078B048C4FF6FF7527F4734705EA033301
:105AD0003B4305EA02221A430C4B05EA01169842A1
